{
    "_format": "hh-sol-artifact-1",
    "contractName": "Domains",
    "sourceName": "contracts/Domains.sol",
    "abi": [
        {
            "inputs": [
                {
                    "internalType": "string",
                    "name": "_tld",
                    "type": "string"
                }
            ],
            "stateMutability": "payable",
            "type": "constructor"
        },
        {
            "inputs": [],
            "name": "AlreadyRegistered",
            "type": "error"
        },
        {
            "inputs": [
                {
                    "internalType": "string",
                    "name": "name",
                    "type": "string"
                }
            ],
            "name": "InvalidName",
            "type": "error"
        },
        {
            "inputs": [],
            "name": "Unauthorized",
            "type": "error"
        },
        {
            "anonymous": false,
            "inputs": [
                {
                    "indexed": true,
                    "internalType": "address",
                    "name": "owner",
                    "type": "address"
                },
                {
                    "indexed": true,
                    "internalType": "address",
                    "name": "approved",
                    "type": "address"
                },
                {
                    "indexed": true,
                    "internalType": "uint256",
                    "name": "tokenId",
                    "type": "uint256"
                }
            ],
            "name": "Approval",
            "type": "event"
        },
        {
            "anonymous": false,
            "inputs": [
                {
                    "indexed": true,
                    "internalType": "address",
                    "name": "owner",
                    "type": "address"
                },
                {
                    "indexed": true,
                    "internalType": "address",
                    "name": "operator",
                    "type": "address"
                },
                {
                    "indexed": false,
                    "internalType": "bool",
                    "name": "approved",
                    "type": "bool"
                }
            ],
            "name": "ApprovalForAll",
            "type": "event"
        },
        {
            "anonymous": false,
            "inputs": [
                {
                    "indexed": true,
                    "internalType": "address",
                    "name": "from",
                    "type": "address"
                },
                {
                    "indexed": true,
                    "internalType": "address",
                    "name": "to",
                    "type": "address"
                },
                {
                    "indexed": true,
                    "internalType": "uint256",
                    "name": "tokenId",
                    "type": "uint256"
                }
            ],
            "name": "Transfer",
            "type": "event"
        },
        {
            "inputs": [
                {
                    "internalType": "address",
                    "name": "to",
                    "type": "address"
                },
                {
                    "internalType": "uint256",
                    "name": "tokenId",
                    "type": "uint256"
                }
            ],
            "name": "approve",
            "outputs": [],
            "stateMutability": "nonpayable",
            "type": "function"
        },
        {
            "inputs": [
                {
                    "internalType": "address",
                    "name": "owner",
                    "type": "address"
                }
            ],
            "name": "balanceOf",
            "outputs": [
                {
                    "internalType": "uint256",
                    "name": "",
                    "type": "uint256"
                }
            ],
            "stateMutability": "view",
            "type": "function"
        },
        {
            "inputs": [
                {
                    "internalType": "string",
                    "name": "",
                    "type": "string"
                }
            ],
            "name": "domains",
            "outputs": [
                {
                    "internalType": "address",
                    "name": "",
                    "type": "address"
                }
            ],
            "stateMutability": "view",
            "type": "function"
        },
        {
            "inputs": [
                {
                    "internalType": "string",
                    "name": "",
                    "type": "string"
                }
            ],
            "name": "emails",
            "outputs": [
                {
                    "internalType": "string",
                    "name": "",
                    "type": "string"
                }
            ],
            "stateMutability": "view",
            "type": "function"
        },
        {
            "inputs": [
                {
                    "internalType": "string",
                    "name": "name",
                    "type": "string"
                }
            ],
            "name": "getAddress",
            "outputs": [
                {
                    "internalType": "address",
                    "name": "",
                    "type": "address"
                }
            ],
            "stateMutability": "view",
            "type": "function"
        },
        {
            "inputs": [],
            "name": "getAllNames",
            "outputs": [
                {
                    "internalType": "string[]",
                    "name": "",
                    "type": "string[]"
                }
            ],
            "stateMutability": "view",
            "type": "function"
        },
        {
            "inputs": [
                {
                    "internalType": "uint256",
                    "name": "tokenId",
                    "type": "uint256"
                }
            ],
            "name": "getApproved",
            "outputs": [
                {
                    "internalType": "address",
                    "name": "",
                    "type": "address"
                }
            ],
            "stateMutability": "view",
            "type": "function"
        },
        {
            "inputs": [
                {
                    "internalType": "string",
                    "name": "name",
                    "type": "string"
                }
            ],
            "name": "getEmail",
            "outputs": [
                {
                    "internalType": "string",
                    "name": "",
                    "type": "string"
                }
            ],
            "stateMutability": "view",
            "type": "function"
        },
        {
            "inputs": [
                {
                    "internalType": "string",
                    "name": "name",
                    "type": "string"
                }
            ],
            "name": "getRecord",
            "outputs": [
                {
                    "internalType": "string",
                    "name": "",
                    "type": "string"
                }
            ],
            "stateMutability": "view",
            "type": "function"
        },
        {
            "inputs": [
                {
                    "internalType": "string",
                    "name": "name",
                    "type": "string"
                }
            ],
            "name": "getWebpage",
            "outputs": [
                {
                    "internalType": "string",
                    "name": "",
                    "type": "string"
                }
            ],
            "stateMutability": "view",
            "type": "function"
        },
        {
            "inputs": [
                {
                    "internalType": "address",
                    "name": "owner",
                    "type": "address"
                },
                {
                    "internalType": "address",
                    "name": "operator",
                    "type": "address"
                }
            ],
            "name": "isApprovedForAll",
            "outputs": [
                {
                    "internalType": "bool",
                    "name": "",
                    "type": "bool"
                }
            ],
            "stateMutability": "view",
            "type": "function"
        },
        {
            "inputs": [],
            "name": "isOwner",
            "outputs": [
                {
                    "internalType": "bool",
                    "name": "",
                    "type": "bool"
                }
            ],
            "stateMutability": "view",
            "type": "function"
        },
        {
            "inputs": [],
            "name": "name",
            "outputs": [
                {
                    "internalType": "string",
                    "name": "",
                    "type": "string"
                }
            ],
            "stateMutability": "view",
            "type": "function"
        },
        {
            "inputs": [
                {
                    "internalType": "uint256",
                    "name": "",
                    "type": "uint256"
                }
            ],
            "name": "names",
            "outputs": [
                {
                    "internalType": "string",
                    "name": "",
                    "type": "string"
                }
            ],
            "stateMutability": "view",
            "type": "function"
        },
        {
            "inputs": [],
            "name": "owner",
            "outputs": [
                {
                    "internalType": "address payable",
                    "name": "",
                    "type": "address"
                }
            ],
            "stateMutability": "view",
            "type": "function"
        },
        {
            "inputs": [
                {
                    "internalType": "uint256",
                    "name": "tokenId",
                    "type": "uint256"
                }
            ],
            "name": "ownerOf",
            "outputs": [
                {
                    "internalType": "address",
                    "name": "",
                    "type": "address"
                }
            ],
            "stateMutability": "view",
            "type": "function"
        },
        {
            "inputs": [
                {
                    "internalType": "string",
                    "name": "name",
                    "type": "string"
                }
            ],
            "name": "price",
            "outputs": [
                {
                    "internalType": "uint256",
                    "name": "",
                    "type": "uint256"
                }
            ],
            "stateMutability": "pure",
            "type": "function"
        },
        {
            "inputs": [
                {
                    "internalType": "string",
                    "name": "",
                    "type": "string"
                }
            ],
            "name": "records",
            "outputs": [
                {
                    "internalType": "string",
                    "name": "",
                    "type": "string"
                }
            ],
            "stateMutability": "view",
            "type": "function"
        },
        {
            "inputs": [
                {
                    "internalType": "string",
                    "name": "name",
                    "type": "string"
                }
            ],
            "name": "register",
            "outputs": [],
            "stateMutability": "payable",
            "type": "function"
        },
        {
            "inputs": [
                {
                    "internalType": "address",
                    "name": "from",
                    "type": "address"
                },
                {
                    "internalType": "address",
                    "name": "to",
                    "type": "address"
                },
                {
                    "internalType": "uint256",
                    "name": "tokenId",
                    "type": "uint256"
                }
            ],
            "name": "safeTransferFrom",
            "outputs": [],
            "stateMutability": "nonpayable",
            "type": "function"
        },
        {
            "inputs": [
                {
                    "internalType": "address",
                    "name": "from",
                    "type": "address"
                },
                {
                    "internalType": "address",
                    "name": "to",
                    "type": "address"
                },
                {
                    "internalType": "uint256",
                    "name": "tokenId",
                    "type": "uint256"
                },
                {
                    "internalType": "bytes",
                    "name": "data",
                    "type": "bytes"
                }
            ],
            "name": "safeTransferFrom",
            "outputs": [],
            "stateMutability": "nonpayable",
            "type": "function"
        },
        {
            "inputs": [
                {
                    "internalType": "string",
                    "name": "name",
                    "type": "string"
                },
                {
                    "internalType": "string",
                    "name": "record",
                    "type": "string"
                },
                {
                    "internalType": "string",
                    "name": "email",
                    "type": "string"
                },
                {
                    "internalType": "string",
                    "name": "webpage",
                    "type": "string"
                }
            ],
            "name": "setAll",
            "outputs": [],
            "stateMutability": "nonpayable",
            "type": "function"
        },
        {
            "inputs": [
                {
                    "internalType": "address",
                    "name": "operator",
                    "type": "address"
                },
                {
                    "internalType": "bool",
                    "name": "approved",
                    "type": "bool"
                }
            ],
            "name": "setApprovalForAll",
            "outputs": [],
            "stateMutability": "nonpayable",
            "type": "function"
        },
        {
            "inputs": [
                {
                    "internalType": "string",
                    "name": "name",
                    "type": "string"
                },
                {
                    "internalType": "string",
                    "name": "email",
                    "type": "string"
                }
            ],
            "name": "setEmail",
            "outputs": [],
            "stateMutability": "nonpayable",
            "type": "function"
        },
        {
            "inputs": [
                {
                    "internalType": "string",
                    "name": "name",
                    "type": "string"
                },
                {
                    "internalType": "string",
                    "name": "record",
                    "type": "string"
                }
            ],
            "name": "setRecord",
            "outputs": [],
            "stateMutability": "nonpayable",
            "type": "function"
        },
        {
            "inputs": [
                {
                    "internalType": "string",
                    "name": "name",
                    "type": "string"
                },
                {
                    "internalType": "string",
                    "name": "webpage",
                    "type": "string"
                }
            ],
            "name": "setWebpage",
            "outputs": [],
            "stateMutability": "nonpayable",
            "type": "function"
        },
        {
            "inputs": [
                {
                    "internalType": "bytes4",
                    "name": "interfaceId",
                    "type": "bytes4"
                }
            ],
            "name": "supportsInterface",
            "outputs": [
                {
                    "internalType": "bool",
                    "name": "",
                    "type": "bool"
                }
            ],
            "stateMutability": "view",
            "type": "function"
        },
        {
            "inputs": [],
            "name": "symbol",
            "outputs": [
                {
                    "internalType": "string",
                    "name": "",
                    "type": "string"
                }
            ],
            "stateMutability": "view",
            "type": "function"
        },
        {
            "inputs": [],
            "name": "tld",
            "outputs": [
                {
                    "internalType": "string",
                    "name": "",
                    "type": "string"
                }
            ],
            "stateMutability": "view",
            "type": "function"
        },
        {
            "inputs": [
                {
                    "internalType": "uint256",
                    "name": "tokenId",
                    "type": "uint256"
                }
            ],
            "name": "tokenURI",
            "outputs": [
                {
                    "internalType": "string",
                    "name": "",
                    "type": "string"
                }
            ],
            "stateMutability": "view",
            "type": "function"
        },
        {
            "inputs": [
                {
                    "internalType": "address",
                    "name": "from",
                    "type": "address"
                },
                {
                    "internalType": "address",
                    "name": "to",
                    "type": "address"
                },
                {
                    "internalType": "uint256",
                    "name": "tokenId",
                    "type": "uint256"
                }
            ],
            "name": "transferFrom",
            "outputs": [],
            "stateMutability": "nonpayable",
            "type": "function"
        },
        {
            "inputs": [
                {
                    "internalType": "string",
                    "name": "name",
                    "type": "string"
                }
            ],
            "name": "valid",
            "outputs": [
                {
                    "internalType": "bool",
                    "name": "",
                    "type": "bool"
                }
            ],
            "stateMutability": "pure",
            "type": "function"
        },
        {
            "inputs": [
                {
                    "internalType": "string",
                    "name": "",
                    "type": "string"
                }
            ],
            "name": "webpages",
            "outputs": [
                {
                    "internalType": "string",
                    "name": "",
                    "type": "string"
                }
            ],
            "stateMutability": "view",
            "type": "function"
        },
        {
            "inputs": [],
            "name": "withdraw",
            "outputs": [],
            "stateMutability": "nonpayable",
            "type": "function"
        }
    ],
    "bytecode": "0x608060405260405180610c800160405280610c5b815260200162005d65610c5b91396009908051906020019062000038929190620002fa565b506040518060e0016040528060b68152602001620069c060b69139600a90805190602001906200006a929190620002fa565b506040518060400160405280600d81526020017f3c2f746578743e3c2f7376673e00000000000000000000000000000000000000815250600b9080519060200190620000b8929190620002fa565b5060405162006a7638038062006a768339818101604052810190620000de919062000547565b6040518060400160405280601781526020017f28646f74292e68656c6c204e616d6520536572766963650000000000000000008152506040518060400160405280600481526020017f44484e5300000000000000000000000000000000000000000000000000000000815250816000908051906020019062000162929190620002fa565b5080600190805190602001906200017b929190620002fa565b50505033601160006101000a81548173ffffffffffffffffffffffffffffffffffffffff021916908373ffffffffffffffffffffffffffffffffffffffff1602179055508060089080519060200190620001d7929190620002fa565b50620002246040518060400160405280601881526020017f2573206e616d652073657276696365206465706c6f7965640000000000000000815250826200022b60201b620023451760201c565b5062000695565b620002cd828260405160240162000244929190620005f5565b6040516020818303038152906040527f4b5c4277000000000000000000000000000000000000000000000000000000007bffffffffffffffffffffffffffffffffffffffffffffffffffffffff19166020820180517bffffffffffffffffffffffffffffffffffffffffffffffffffffffff8381831617835250505050620002d160201b60201c565b5050565b60008151905060006a636f6e736f6c652e6c6f679050602083016000808483855afa5050505050565b82805462000308906200065f565b90600052602060002090601f0160209004810192826200032c576000855562000378565b82601f106200034757805160ff191683800117855562000378565b8280016001018555821562000378579182015b82811115620003775782518255916020019190600101906200035a565b5b5090506200038791906200038b565b5090565b5b80821115620003a65760008160009055506001016200038c565b5090565b6000604051905090565b600080fd5b600080fd5b600080fd5b600080fd5b6000601f19601f8301169050919050565b7f4e487b7100000000000000000000000000000000000000000000000000000000600052604160045260246000fd5b6200041382620003c8565b810181811067ffffffffffffffff82111715620004355762000434620003d9565b5b80604052505050565b60006200044a620003aa565b905062000458828262000408565b919050565b600067ffffffffffffffff8211156200047b576200047a620003d9565b5b6200048682620003c8565b9050602081019050919050565b60005b83811015620004b357808201518184015260208101905062000496565b83811115620004c3576000848401525b50505050565b6000620004e0620004da846200045d565b6200043e565b905082815260208101848484011115620004ff57620004fe620003c3565b5b6200050c84828562000493565b509392505050565b600082601f8301126200052c576200052b620003be565b5b81516200053e848260208601620004c9565b91505092915050565b60006020828403121562000560576200055f620003b4565b5b600082015167ffffffffffffffff811115620005815762000580620003b9565b5b6200058f8482850162000514565b91505092915050565b600081519050919050565b600082825260208201905092915050565b6000620005c18262000598565b620005cd8185620005a3565b9350620005df81856020860162000493565b620005ea81620003c8565b840191505092915050565b60006040820190508181036000830152620006118185620005b4565b90508181036020830152620006278184620005b4565b90509392505050565b7f4e487b7100000000000000000000000000000000000000000000000000000000600052602260045260246000fd5b600060028204905060018216806200067857607f821691505b602082108114156200068f576200068e62000630565b5b50919050565b6156c080620006a56000396000f3fe6080604052600436106101f95760003560e01c80638da5cb5b1161010d578063c1880a98116100a0578063e985e9c51161006f578063e985e9c5146107b3578063f2c298be146107f0578063f77e8bd71461080c578063fb825e5f14610849578063fe2c619814610874576101f9565b8063c1880a98146106e7578063c87b56dd14610710578063d35bfbd81461074d578063d5b0d30d14610776576101f9565b8063a22cb465116100dc578063a22cb4651461061b578063b4ba089814610644578063b88d4fde14610681578063bf40fac1146106aa576101f9565b80638da5cb5b1461055d5780638f32d59b1461058857806395d89b41146105b35780639791c097146105de576101f9565b80633ccfd60b11610190578063541e771d1161015f578063541e771d146104405780635a6ed2d01461047d57806360730a8a146104a65780636352211e146104e357806370a0823114610520576101f9565b80633ccfd60b1461039a57806340e52b9c146103b157806342842e0e146103da5780634622ab0314610403576101f9565b806311dd8845116101cc57806311dd8845146102cc57806323b872dd1461030957806326449235146103325780632d5514321461036f576101f9565b806301ffc9a7146101fe57806306fdde031461023b578063081812fc14610266578063095ea7b3146102a3575b600080fd5b34801561020a57600080fd5b5061022560048036038101906102209190613b2a565b6108b1565b6040516102329190613b72565b60405180910390f35b34801561024757600080fd5b50610250610993565b60405161025d9190613c26565b60405180910390f35b34801561027257600080fd5b5061028d60048036038101906102889190613c7e565b610a25565b60405161029a9190613cec565b60405180910390f35b3480156102af57600080fd5b506102ca60048036038101906102c59190613d33565b610a6b565b005b3480156102d857600080fd5b506102f360048036038101906102ee9190613dd8565b610b83565b6040516103009190613c26565b60405180910390f35b34801561031557600080fd5b50610330600480360381019061032b9190613e25565b610c36565b005b34801561033e57600080fd5b5061035960048036038101906103549190613fa8565b610c96565b6040516103669190613cec565b60405180910390f35b34801561037b57600080fd5b50610384610cdf565b6040516103919190613c26565b60405180910390f35b3480156103a657600080fd5b506103af610d6d565b005b3480156103bd57600080fd5b506103d860048036038101906103d39190613ff1565b610e33565b005b3480156103e657600080fd5b5061040160048036038101906103fc9190613e25565b610ee1565b005b34801561040f57600080fd5b5061042a60048036038101906104259190613c7e565b610f01565b6040516104379190613c26565b60405180910390f35b34801561044c57600080fd5b5061046760048036038101906104629190613fa8565b610fa1565b6040516104749190613c26565b60405180910390f35b34801561048957600080fd5b506104a4600480360381019061049f9190614072565b611057565b005b3480156104b257600080fd5b506104cd60048036038101906104c89190613fa8565b611196565b6040516104da9190613c26565b60405180910390f35b3480156104ef57600080fd5b5061050a60048036038101906105059190613c7e565b61124c565b6040516105179190613cec565b60405180910390f35b34801561052c57600080fd5b506105476004803603810190610542919061415b565b6112d3565b6040516105549190614197565b60405180910390f35b34801561056957600080fd5b5061057261138b565b60405161057f91906141d3565b60405180910390f35b34801561059457600080fd5b5061059d6113b1565b6040516105aa9190613b72565b60405180910390f35b3480156105bf57600080fd5b506105c8611409565b6040516105d59190613c26565b60405180910390f35b3480156105ea57600080fd5b5061060560048036038101906106009190613dd8565b61149b565b6040516106129190613b72565b60405180910390f35b34801561062757600080fd5b50610642600480360381019061063d919061421a565b61154f565b005b34801561065057600080fd5b5061066b60048036038101906106669190613dd8565b611565565b6040516106789190613c26565b60405180910390f35b34801561068d57600080fd5b506106a860048036038101906106a391906142fb565b611618565b005b3480156106b657600080fd5b506106d160048036038101906106cc9190613dd8565b61167a565b6040516106de9190613cec565b60405180910390f35b3480156106f357600080fd5b5061070e60048036038101906107099190613ff1565b6116c5565b005b34801561071c57600080fd5b5061073760048036038101906107329190613c7e565b6117a0565b6040516107449190613c26565b60405180910390f35b34801561075957600080fd5b50610774600480360381019061076f9190613ff1565b6118b3565b005b34801561078257600080fd5b5061079d60048036038101906107989190613fa8565b6119a0565b6040516107aa9190613c26565b60405180910390f35b3480156107bf57600080fd5b506107da60048036038101906107d5919061437e565b611a56565b6040516107e79190613b72565b60405180910390f35b61080a60048036038101906108059190613dd8565b611aea565b005b34801561081857600080fd5b50610833600480360381019061082e9190613dd8565b61200e565b6040516108409190613c26565b60405180910390f35b34801561085557600080fd5b5061085e6120c1565b60405161086b91906144ca565b60405180910390f35b34801561088057600080fd5b5061089b60048036038101906108969190613dd8565b61229f565b6040516108a89190614197565b60405180910390f35b60007f80ac58cd000000000000000000000000000000000000000000000000000000007bffffffffffffffffffffffffffffffffffffffffffffffffffffffff1916827bffffffffffffffffffffffffffffffffffffffffffffffffffffffff1916148061097c57507f5b5e139f000000000000000000000000000000000000000000000000000000007bffffffffffffffffffffffffffffffffffffffffffffffffffffffff1916827bffffffffffffffffffffffffffffffffffffffffffffffffffffffff1916145b8061098c575061098b826123e1565b5b9050919050565b6060600080546109a29061451b565b80601f01602080910402602001604051908101604052809291908181526020018280546109ce9061451b565b8015610a1b5780601f106109f057610100808354040283529160200191610a1b565b820191906000526020600020905b8154815290600101906020018083116109fe57829003601f168201915b5050505050905090565b6000610a308261244b565b6004600083815260200190815260200160002060009054906101000a900473ffffffffffffffffffffffffffffffffffffffff169050919050565b6000610a768261124c565b90508073ffffffffffffffffffffffffffffffffffffffff168373ffffffffffffffffffffffffffffffffffffffff161415610ae7576040517f08c379a0000000000000000000000000000000000000000000000000000000008152600401610ade906145bf565b60405180910390fd5b8073ffffffffffffffffffffffffffffffffffffffff16610b06612496565b73ffffffffffffffffffffffffffffffffffffffff161480610b355750610b3481610b2f612496565b611a56565b5b610b74576040517f08c379a0000000000000000000000000000000000000000000000000000000008152600401610b6b90614651565b60405180910390fd5b610b7e838361249e565b505050565b6060600d8383604051610b979291906146a1565b90815260200160405180910390208054610bb09061451b565b80601f0160208091040260200160405190810160405280929190818152602001828054610bdc9061451b565b8015610c295780601f10610bfe57610100808354040283529160200191610c29565b820191906000526020600020905b815481529060010190602001808311610c0c57829003601f168201915b5050505050905092915050565b610c47610c41612496565b82612557565b610c86576040517f08c379a0000000000000000000000000000000000000000000000000000000008152600401610c7d9061472c565b60405180910390fd5b610c918383836125ec565b505050565b600c818051602081018201805184825260208301602085012081835280955050505050506000915054906101000a900473ffffffffffffffffffffffffffffffffffffffff1681565b60088054610cec9061451b565b80601f0160208091040260200160405190810160405280929190818152602001828054610d189061451b565b8015610d655780601f10610d3a57610100808354040283529160200191610d65565b820191906000526020600020905b815481529060010190602001808311610d4857829003601f168201915b505050505081565b610d756113b1565b610d7e57600080fd5b600047905060003373ffffffffffffffffffffffffffffffffffffffff1682604051610da99061477d565b60006040518083038185875af1925050503d8060008114610de6576040519150601f19603f3d011682016040523d82523d6000602084013e610deb565b606091505b5050905080610e2f576040517f08c379a0000000000000000000000000000000000000000000000000000000008152600401610e26906147de565b60405180910390fd5b5050565b3373ffffffffffffffffffffffffffffffffffffffff16600c8585604051610e5c9291906146a1565b908152602001604051809103902060009054906101000a900473ffffffffffffffffffffffffffffffffffffffff1673ffffffffffffffffffffffffffffffffffffffff1614610eab57600080fd5b8181600f8686604051610ebf9291906146a1565b90815260200160405180910390209190610eda929190613995565b5050505050565b610efc83838360405180602001604052806000815250611618565b505050565b60106020528060005260406000206000915090508054610f209061451b565b80601f0160208091040260200160405190810160405280929190818152602001828054610f4c9061451b565b8015610f995780601f10610f6e57610100808354040283529160200191610f99565b820191906000526020600020905b815481529060010190602001808311610f7c57829003601f168201915b505050505081565b600d818051602081018201805184825260208301602085012081835280955050505050506000915090508054610fd69061451b565b80601f01602080910402602001604051908101604052809291908181526020018280546110029061451b565b801561104f5780601f106110245761010080835404028352916020019161104f565b820191906000526020600020905b81548152906001019060200180831161103257829003601f168201915b505050505081565b600c88886040516110699291906146a1565b908152602001604051809103902060009054906101000a900473ffffffffffffffffffffffffffffffffffffffff1673ffffffffffffffffffffffffffffffffffffffff163373ffffffffffffffffffffffffffffffffffffffff16146110fc576040517f82b4290000000000000000000000000000000000000000000000000000000000815260040160405180910390fd5b8585600d8a8a6040516111109291906146a1565b9081526020016040518091039020919061112b929190613995565b508383600e8a8a6040516111409291906146a1565b9081526020016040518091039020919061115b929190613995565b508181600f8a8a6040516111709291906146a1565b9081526020016040518091039020919061118b929190613995565b505050505050505050565b600f8180516020810182018051848252602083016020850120818352809550505050505060009150905080546111cb9061451b565b80601f01602080910402602001604051908101604052809291908181526020018280546111f79061451b565b80156112445780601f1061121957610100808354040283529160200191611244565b820191906000526020600020905b81548152906001019060200180831161122757829003601f168201915b505050505081565b600080611258836128e6565b9050600073ffffffffffffffffffffffffffffffffffffffff168173ffffffffffffffffffffffffffffffffffffffff1614156112ca576040517f08c379a00000000000000000000000000000000000000000000000000000000081526004016112c19061484a565b60405180910390fd5b80915050919050565b60008073ffffffffffffffffffffffffffffffffffffffff168273ffffffffffffffffffffffffffffffffffffffff161415611344576040517f08c379a000000000000000000000000000000000000000000000000000000000815260040161133b906148dc565b60405180910390fd5b600360008373ffffffffffffffffffffffffffffffffffffffff1673ffffffffffffffffffffffffffffffffffffffff168152602001908152602001600020549050919050565b601160009054906101000a900473ffffffffffffffffffffffffffffffffffffffff1681565b6000601160009054906101000a900473ffffffffffffffffffffffffffffffffffffffff1673ffffffffffffffffffffffffffffffffffffffff163373ffffffffffffffffffffffffffffffffffffffff1614905090565b6060600180546114189061451b565b80601f01602080910402602001604051908101604052809291908181526020018280546114449061451b565b80156114915780601f1061146657610100808354040283529160200191611491565b820191906000526020600020905b81548152906001019060200180831161147457829003601f168201915b5050505050905090565b600060036114ec84848080601f016020809104026020016040519081016040528093929190818152602001838380828437600081840152601f19601f82011690508083019250505050505050612923565b101580156115475750600a61154484848080601f016020809104026020016040519081016040528093929190818152602001838380828437600081840152601f19601f82011690508083019250505050505050612923565b11155b905092915050565b61156161155a612496565b8383612ad8565b5050565b6060600f83836040516115799291906146a1565b908152602001604051809103902080546115929061451b565b80601f01602080910402602001604051908101604052809291908181526020018280546115be9061451b565b801561160b5780601f106115e05761010080835404028352916020019161160b565b820191906000526020600020905b8154815290600101906020018083116115ee57829003601f168201915b5050505050905092915050565b611629611623612496565b83612557565b611668576040517f08c379a000000000000000000000000000000000000000000000000000000000815260040161165f9061472c565b60405180910390fd5b61167484848484612c45565b50505050565b6000600c838360405161168e9291906146a1565b908152602001604051809103902060009054906101000a900473ffffffffffffffffffffffffffffffffffffffff16905092915050565b600c84846040516116d79291906146a1565b908152602001604051809103902060009054906101000a900473ffffffffffffffffffffffffffffffffffffffff1673ffffffffffffffffffffffffffffffffffffffff163373ffffffffffffffffffffffffffffffffffffffff161461176a576040517f82b4290000000000000000000000000000000000000000000000000000000000815260040160405180910390fd5b8181600d868660405161177e9291906146a1565b90815260200160405180910390209190611799929190613995565b5050505050565b60606117ab8261244b565b60006006600084815260200190815260200160002080546117cb9061451b565b80601f01602080910402602001604051908101604052809291908181526020018280546117f79061451b565b80156118445780601f1061181957610100808354040283529160200191611844565b820191906000526020600020905b81548152906001019060200180831161182757829003601f168201915b505050505090506000611855612ca1565b905060008151141561186b5781925050506118ae565b6000825111156118a057808260405160200161188892919061492d565b604051602081830303815290604052925050506118ae565b6118a984612cb8565b925050505b919050565b3373ffffffffffffffffffffffffffffffffffffffff16600c85856040516118dc9291906146a1565b908152602001604051809103902060009054906101000a900473ffffffffffffffffffffffffffffffffffffffff1673ffffffffffffffffffffffffffffffffffffffff161461192b57600080fd5b8181600e868660405161193f9291906146a1565b9081526020016040518091039020919061195a929190613995565b5061199a6040518060400160405280601281526020017f456d61696c20616464726573732073657421000000000000000000000000000081525033612d20565b50505050565b600e8180516020810182018051848252602083016020850120818352809550505050505060009150905080546119d59061451b565b80601f0160208091040260200160405190810160405280929190818152602001828054611a019061451b565b8015611a4e5780601f10611a2357610100808354040283529160200191611a4e565b820191906000526020600020905b815481529060010190602001808311611a3157829003601f168201915b505050505081565b6000600560008473ffffffffffffffffffffffffffffffffffffffff1673ffffffffffffffffffffffffffffffffffffffff16815260200190815260200160002060008373ffffffffffffffffffffffffffffffffffffffff1673ffffffffffffffffffffffffffffffffffffffff16815260200190815260200160002060009054906101000a900460ff16905092915050565b600073ffffffffffffffffffffffffffffffffffffffff16600c8383604051611b149291906146a1565b908152602001604051809103902060009054906101000a900473ffffffffffffffffffffffffffffffffffffffff1673ffffffffffffffffffffffffffffffffffffffff1614611b90576040517f3a81d6fc00000000000000000000000000000000000000000000000000000000815260040160405180910390fd5b611b9a828261149b565b611bdd5781816040517f7f19f48d000000000000000000000000000000000000000000000000000000008152600401611bd492919061497e565b60405180910390fd5b600073ffffffffffffffffffffffffffffffffffffffff16600c8383604051611c079291906146a1565b908152602001604051809103902060009054906101000a900473ffffffffffffffffffffffffffffffffffffffff1673ffffffffffffffffffffffffffffffffffffffff1614611c5657600080fd5b6000611c62838361229f565b905080341015611ca7576040517f08c379a0000000000000000000000000000000000000000000000000000000008152600401611c9e906149ee565b60405180910390fd5b600083836008604051602001611cbf93929190614aee565b604051602081830303815290604052905060006008604051602001611ce49190614b6b565b6040516020818303038152906040529050600060098686600a85600b604051602001611d1596959493929190614b8d565b60405160208183030381529060405290506000611d326007612dbc565b90506000611d8388888080601f016020809104026020016040519081016040528093929190818152602001838380828437600081840152601f19601f82011690508083019250505050505050612923565b90506000611d9082612dca565b9050611e846040518060600160405280603181526020016155e1603191398a8a8080601f016020809104026020016040519081016040528093929190818152602001838380828437600081840152601f19601f8201169050808301925050505050505060088054611e009061451b565b80601f0160208091040260200160405190810160405280929190818152602001828054611e2c9061451b565b8015611e795780601f10611e4e57610100808354040283529160200191611e79565b820191906000526020600020905b815481529060010190602001808311611e5c57829003601f168201915b505050505086612ea2565b6000611eba87611e9387612f44565b84604051602001611ea693929190614d7c565b604051602081830303815290604052612f44565b9050600081604051602001611ecf9190614e25565b6040516020818303038152906040529050611f016040518060600160405280603981526020016155a8603991396130a8565b611f406040518060400160405280600e81526020017f46696e616c20746f6b656e55524900000000000000000000000000000000000081525082612345565b611f61604051806060016040528060398152602001615612603991396130a8565b611f6b3386613141565b611f75858261315f565b33600c8c8c604051611f889291906146a1565b908152602001604051809103902060006101000a81548173ffffffffffffffffffffffffffffffffffffffff021916908373ffffffffffffffffffffffffffffffffffffffff1602179055508a8a601060008881526020019081526020016000209190611ff6929190613995565b5061200160076131d3565b5050505050505050505050565b6060600e83836040516120229291906146a1565b9081526020016040518091039020805461203b9061451b565b80601f01602080910402602001604051908101604052809291908181526020018280546120679061451b565b80156120b45780601f10612089576101008083540402835291602001916120b4565b820191906000526020600020905b81548152906001019060200180831161209757829003601f168201915b5050505050905092915050565b60606121016040518060400160405280602081526020017f47657474696e6720616c6c206e616d65732066726f6d20636f6e74726163742e8152506130a8565b600061210d6007612dbc565b67ffffffffffffffff81111561212657612125613e7d565b5b60405190808252806020026020018201604052801561215957816020015b60608152602001906001900390816121445790505b50905060005b6121696007612dbc565b8110156122975760106000828152602001908152602001600020805461218e9061451b565b80601f01602080910402602001604051908101604052809291908181526020018280546121ba9061451b565b80156122075780601f106121dc57610100808354040283529160200191612207565b820191906000526020600020905b8154815290600101906020018083116121ea57829003601f168201915b505050505082828151811061221f5761221e614e47565b5b60200260200101819052506122846040518060400160405280601781526020017f4e616d6520666f7220746f6b656e2025642069732025730000000000000000008152508284848151811061227757612276614e47565b5b60200260200101516131e9565b808061228f90614ea5565b91505061215f565b508091505090565b6000806122ef84848080601f016020809104026020016040519081016040528093929190818152602001838380828437600081840152601f19601f82011690508083019250505050505050612923565b9050600081116122fe57600080fd5b6003811415612318576706f05b59d3b2000091505061233f565b600481141561233257670429d069189e000091505061233f565b67016345785d8a00009150505b92915050565b6123dd828260405160240161235b929190614eee565b6040516020818303038152906040527f4b5c4277000000000000000000000000000000000000000000000000000000007bffffffffffffffffffffffffffffffffffffffffffffffffffffffff19166020820180517bffffffffffffffffffffffffffffffffffffffffffffffffffffffff8381831617835250505050613288565b5050565b60007f01ffc9a7000000000000000000000000000000000000000000000000000000007bffffffffffffffffffffffffffffffffffffffffffffffffffffffff1916827bffffffffffffffffffffffffffffffffffffffffffffffffffffffff1916149050919050565b612454816132b1565b612493576040517f08c379a000000000000000000000000000000000000000000000000000000000815260040161248a9061484a565b60405180910390fd5b50565b600033905090565b816004600083815260200190815260200160002060006101000a81548173ffffffffffffffffffffffffffffffffffffffff021916908373ffffffffffffffffffffffffffffffffffffffff160217905550808273ffffffffffffffffffffffffffffffffffffffff166125118361124c565b73ffffffffffffffffffffffffffffffffffffffff167f8c5be1e5ebec7d5bd14f71427d1e84f3dd0314c0f7b2291e5b200ac8c7c3b92560405160405180910390a45050565b6000806125638361124c565b90508073ffffffffffffffffffffffffffffffffffffffff168473ffffffffffffffffffffffffffffffffffffffff1614806125a557506125a48185611a56565b5b806125e357508373ffffffffffffffffffffffffffffffffffffffff166125cb84610a25565b73ffffffffffffffffffffffffffffffffffffffff16145b91505092915050565b8273ffffffffffffffffffffffffffffffffffffffff1661260c8261124c565b73ffffffffffffffffffffffffffffffffffffffff1614612662576040517f08c379a000000000000000000000000000000000000000000000000000000000815260040161265990614f97565b60405180910390fd5b600073ffffffffffffffffffffffffffffffffffffffff168273ffffffffffffffffffffffffffffffffffffffff1614156126d2576040517f08c379a00000000000000000000000000000000000000000000000000000000081526004016126c990615029565b60405180910390fd5b6126df83838360016132f2565b8273ffffffffffffffffffffffffffffffffffffffff166126ff8261124c565b73ffffffffffffffffffffffffffffffffffffffff1614612755576040517f08c379a000000000000000000000000000000000000000000000000000000000815260040161274c90614f97565b60405180910390fd5b6004600082815260200190815260200160002060006101000a81549073ffffffffffffffffffffffffffffffffffffffff02191690556001600360008573ffffffffffffffffffffffffffffffffffffffff1673ffffffffffffffffffffffffffffffffffffffff168152602001908152602001600020600082825403925050819055506001600360008473ffffffffffffffffffffffffffffffffffffffff1673ffffffffffffffffffffffffffffffffffffffff16815260200190815260200160002060008282540192505081905550816002600083815260200190815260200160002060006101000a81548173ffffffffffffffffffffffffffffffffffffffff021916908373ffffffffffffffffffffffffffffffffffffffff160217905550808273ffffffffffffffffffffffffffffffffffffffff168473ffffffffffffffffffffffffffffffffffffffff167fddf252ad1be2c89b69c2b068fc378daa952ba7f163c4a11628f55a4df523b3ef60405160405180910390a46128e18383836001613418565b505050565b60006002600083815260200190815260200160002060009054906101000a900473ffffffffffffffffffffffffffffffffffffffff169050919050565b60008060008084519050600092505b80821015612acd57600085838151811061294f5761294e614e47565b5b602001015160f81c60f81b9050608060f81b817effffffffffffffffffffffffffffffffffffffffffffffffffffffffffffff1916101561299e576001836129979190615049565b9250612ab9565b60e060f81b817effffffffffffffffffffffffffffffffffffffffffffffffffffffffffffff191610156129e0576002836129d99190615049565b9250612ab8565b60f060f81b817effffffffffffffffffffffffffffffffffffffffffffffffffffffffffffff19161015612a2257600383612a1b9190615049565b9250612ab7565b60f8801b817effffffffffffffffffffffffffffffffffffffffffffffffffffffffffffff19161015612a6357600483612a5c9190615049565b9250612ab6565b60fc60f81b817effffffffffffffffffffffffffffffffffffffffffffffffffffffffffffff19161015612aa557600583612a9e9190615049565b9250612ab5565b600683612ab29190615049565b92505b5b5b5b5b508280612ac590614ea5565b935050612932565b829350505050919050565b8173ffffffffffffffffffffffffffffffffffffffff168373ffffffffffffffffffffffffffffffffffffffff161415612b47576040517f08c379a0000000000000000000000000000000000000000000000000000000008152600401612b3e906150eb565b60405180910390fd5b80600560008573ffffffffffffffffffffffffffffffffffffffff1673ffffffffffffffffffffffffffffffffffffffff16815260200190815260200160002060008473ffffffffffffffffffffffffffffffffffffffff1673ffffffffffffffffffffffffffffffffffffffff16815260200190815260200160002060006101000a81548160ff0219169083151502179055508173ffffffffffffffffffffffffffffffffffffffff168373ffffffffffffffffffffffffffffffffffffffff167f17307eab39ab6107e8899845ad3d59bd9653f200f220920489ca2b5937696c3183604051612c389190613b72565b60405180910390a3505050565b612c508484846125ec565b612c5c8484848461341e565b612c9b576040517f08c379a0000000000000000000000000000000000000000000000000000000008152600401612c929061517d565b60405180910390fd5b50505050565b606060405180602001604052806000815250905090565b6060612cc38261244b565b6000612ccd612ca1565b90506000815111612ced5760405180602001604052806000815250612d18565b80612cf784612dca565b604051602001612d0892919061492d565b6040516020818303038152906040525b915050919050565b612db88282604051602401612d3692919061519d565b6040516020818303038152906040527f319af333000000000000000000000000000000000000000000000000000000007bffffffffffffffffffffffffffffffffffffffffffffffffffffffff19166020820180517bffffffffffffffffffffffffffffffffffffffffffffffffffffffff8381831617835250505050613288565b5050565b600081600001549050919050565b606060006001612dd9846135a6565b01905060008167ffffffffffffffff811115612df857612df7613e7d565b5b6040519080825280601f01601f191660200182016040528015612e2a5781602001600182028036833780820191505090505b509050600082602001820190505b600115612e97578080600190039150507f3031323334353637383961626364656600000000000000000000000000000000600a86061a8153600a8581612e8157612e806151cd565b5b0494506000851415612e9257612e97565b612e38565b819350505050919050565b612f3e84848484604051602401612ebc94939291906151fc565b6040516020818303038152906040527f8eafb02b000000000000000000000000000000000000000000000000000000007bffffffffffffffffffffffffffffffffffffffffffffffffffffffff19166020820180517bffffffffffffffffffffffffffffffffffffffffffffffffffffffff8381831617835250505050613288565b50505050565b6060600082511415612f67576040518060200160405280600081525090506130a3565b600060405180606001604052806040815260200161564b6040913990506000600360028551612f969190615049565b612fa09190615256565b6004612fac9190615287565b67ffffffffffffffff811115612fc557612fc4613e7d565b5b6040519080825280601f01601f191660200182016040528015612ff75781602001600182028036833780820191505090505b509050600182016020820185865187015b80821015613063576003820191508151603f8160121c168501518453600184019350603f81600c1c168501518453600184019350603f8160061c168501518453600184019350603f8116850151845360018401935050613008565b505060038651066001811461307f57600281146130925761309a565b603d6001830353603d600283035361309a565b603d60018303535b50505080925050505b919050565b61313e816040516024016130bc9190613c26565b6040516020818303038152906040527f41304fac000000000000000000000000000000000000000000000000000000007bffffffffffffffffffffffffffffffffffffffffffffffffffffffff19166020820180517bffffffffffffffffffffffffffffffffffffffffffffffffffffffff8381831617835250505050613288565b50565b61315b8282604051806020016040528060008152506136f9565b5050565b613168826132b1565b6131a7576040517f08c379a000000000000000000000000000000000000000000000000000000000815260040161319e90615353565b60405180910390fd5b806006600084815260200190815260200160002090805190602001906131ce929190613a1b565b505050565b6001816000016000828254019250508190555050565b61328383838360405160240161320193929190615373565b6040516020818303038152906040527f5970e089000000000000000000000000000000000000000000000000000000007bffffffffffffffffffffffffffffffffffffffffffffffffffffffff19166020820180517bffffffffffffffffffffffffffffffffffffffffffffffffffffffff8381831617835250505050613288565b505050565b60008151905060006a636f6e736f6c652e6c6f679050602083016000808483855afa5050505050565b60008073ffffffffffffffffffffffffffffffffffffffff166132d3836128e6565b73ffffffffffffffffffffffffffffffffffffffff1614159050919050565b600181111561341257600073ffffffffffffffffffffffffffffffffffffffff168473ffffffffffffffffffffffffffffffffffffffff16146133865780600360008673ffffffffffffffffffffffffffffffffffffffff1673ffffffffffffffffffffffffffffffffffffffff168152602001908152602001600020600082825461337e91906153b8565b925050819055505b600073ffffffffffffffffffffffffffffffffffffffff168373ffffffffffffffffffffffffffffffffffffffff16146134115780600360008573ffffffffffffffffffffffffffffffffffffffff1673ffffffffffffffffffffffffffffffffffffffff16815260200190815260200160002060008282546134099190615049565b925050819055505b5b50505050565b50505050565b600061343f8473ffffffffffffffffffffffffffffffffffffffff16613754565b15613599578373ffffffffffffffffffffffffffffffffffffffff1663150b7a02613468612496565b8786866040518563ffffffff1660e01b815260040161348a9493929190615441565b6020604051808303816000875af19250505080156134c657506040513d601f19601f820116820180604052508101906134c391906154a2565b60015b613549573d80600081146134f6576040519150601f19603f3d011682016040523d82523d6000602084013e6134fb565b606091505b50600081511415613541576040517f08c379a00000000000000000000000000000000000000000000000000000000081526004016135389061517d565b60405180910390fd5b805181602001fd5b63150b7a0260e01b7bffffffffffffffffffffffffffffffffffffffffffffffffffffffff1916817bffffffffffffffffffffffffffffffffffffffffffffffffffffffff19161491505061359e565b600190505b949350505050565b600080600090507a184f03e93ff9f4daa797ed6e38ed64bf6a1f0100000000000000008310613604577a184f03e93ff9f4daa797ed6e38ed64bf6a1f01000000000000000083816135fa576135f96151cd565b5b0492506040810190505b6d04ee2d6d415b85acef81000000008310613641576d04ee2d6d415b85acef81000000008381613637576136366151cd565b5b0492506020810190505b662386f26fc10000831061367057662386f26fc100008381613666576136656151cd565b5b0492506010810190505b6305f5e1008310613699576305f5e100838161368f5761368e6151cd565b5b0492506008810190505b61271083106136be5761271083816136b4576136b36151cd565b5b0492506004810190505b606483106136e157606483816136d7576136d66151cd565b5b0492506002810190505b600a83106136f0576001810190505b80915050919050565b6137038383613777565b613710600084848461341e565b61374f576040517f08c379a00000000000000000000000000000000000000000000000000000000081526004016137469061517d565b60405180910390fd5b505050565b6000808273ffffffffffffffffffffffffffffffffffffffff163b119050919050565b600073ffffffffffffffffffffffffffffffffffffffff168273ffffffffffffffffffffffffffffffffffffffff1614156137e7576040517f08c379a00000000000000000000000000000000000000000000000000000000081526004016137de9061551b565b60405180910390fd5b6137f0816132b1565b15613830576040517f08c379a000000000000000000000000000000000000000000000000000000000815260040161382790615587565b60405180910390fd5b61383e6000838360016132f2565b613847816132b1565b15613887576040517f08c379a000000000000000000000000000000000000000000000000000000000815260040161387e90615587565b60405180910390fd5b6001600360008473ffffffffffffffffffffffffffffffffffffffff1673ffffffffffffffffffffffffffffffffffffffff16815260200190815260200160002060008282540192505081905550816002600083815260200190815260200160002060006101000a81548173ffffffffffffffffffffffffffffffffffffffff021916908373ffffffffffffffffffffffffffffffffffffffff160217905550808273ffffffffffffffffffffffffffffffffffffffff16600073ffffffffffffffffffffffffffffffffffffffff167fddf252ad1be2c89b69c2b068fc378daa952ba7f163c4a11628f55a4df523b3ef60405160405180910390a4613991600083836001613418565b5050565b8280546139a19061451b565b90600052602060002090601f0160209004810192826139c35760008555613a0a565b82601f106139dc57803560ff1916838001178555613a0a565b82800160010185558215613a0a579182015b82811115613a095782358255916020019190600101906139ee565b5b509050613a179190613aa1565b5090565b828054613a279061451b565b90600052602060002090601f016020900481019282613a495760008555613a90565b82601f10613a6257805160ff1916838001178555613a90565b82800160010185558215613a90579182015b82811115613a8f578251825591602001919060010190613a74565b5b509050613a9d9190613aa1565b5090565b5b80821115613aba576000816000905550600101613aa2565b5090565b6000604051905090565b600080fd5b600080fd5b60007fffffffff0000000000000000000000000000000000000000000000000000000082169050919050565b613b0781613ad2565b8114613b1257600080fd5b50565b600081359050613b2481613afe565b92915050565b600060208284031215613b4057613b3f613ac8565b5b6000613b4e84828501613b15565b91505092915050565b60008115159050919050565b613b6c81613b57565b82525050565b6000602082019050613b876000830184613b63565b92915050565b600081519050919050565b600082825260208201905092915050565b60005b83811015613bc7578082015181840152602081019050613bac565b83811115613bd6576000848401525b50505050565b6000601f19601f8301169050919050565b6000613bf882613b8d565b613c028185613b98565b9350613c12818560208601613ba9565b613c1b81613bdc565b840191505092915050565b60006020820190508181036000830152613c408184613bed565b905092915050565b6000819050919050565b613c5b81613c48565b8114613c6657600080fd5b50565b600081359050613c7881613c52565b92915050565b600060208284031215613c9457613c93613ac8565b5b6000613ca284828501613c69565b91505092915050565b600073ffffffffffffffffffffffffffffffffffffffff82169050919050565b6000613cd682613cab565b9050919050565b613ce681613ccb565b82525050565b6000602082019050613d016000830184613cdd565b92915050565b613d1081613ccb565b8114613d1b57600080fd5b50565b600081359050613d2d81613d07565b92915050565b60008060408385031215613d4a57613d49613ac8565b5b6000613d5885828601613d1e565b9250506020613d6985828601613c69565b9150509250929050565b600080fd5b600080fd5b600080fd5b60008083601f840112613d9857613d97613d73565b5b8235905067ffffffffffffffff811115613db557613db4613d78565b5b602083019150836001820283011115613dd157613dd0613d7d565b5b9250929050565b60008060208385031215613def57613dee613ac8565b5b600083013567ffffffffffffffff811115613e0d57613e0c613acd565b5b613e1985828601613d82565b92509250509250929050565b600080600060608486031215613e3e57613e3d613ac8565b5b6000613e4c86828701613d1e565b9350506020613e5d86828701613d1e565b9250506040613e6e86828701613c69565b9150509250925092565b600080fd5b7f4e487b7100000000000000000000000000000000000000000000000000000000600052604160045260246000fd5b613eb582613bdc565b810181811067ffffffffffffffff82111715613ed457613ed3613e7d565b5b80604052505050565b6000613ee7613abe565b9050613ef38282613eac565b919050565b600067ffffffffffffffff821115613f1357613f12613e7d565b5b613f1c82613bdc565b9050602081019050919050565b82818337600083830152505050565b6000613f4b613f4684613ef8565b613edd565b905082815260208101848484011115613f6757613f66613e78565b5b613f72848285613f29565b509392505050565b600082601f830112613f8f57613f8e613d73565b5b8135613f9f848260208601613f38565b91505092915050565b600060208284031215613fbe57613fbd613ac8565b5b600082013567ffffffffffffffff811115613fdc57613fdb613acd565b5b613fe884828501613f7a565b91505092915050565b6000806000806040858703121561400b5761400a613ac8565b5b600085013567ffffffffffffffff81111561402957614028613acd565b5b61403587828801613d82565b9450945050602085013567ffffffffffffffff81111561405857614057613acd565b5b61406487828801613d82565b925092505092959194509250565b6000806000806000806000806080898b03121561409257614091613ac8565b5b600089013567ffffffffffffffff8111156140b0576140af613acd565b5b6140bc8b828c01613d82565b9850985050602089013567ffffffffffffffff8111156140df576140de613acd565b5b6140eb8b828c01613d82565b9650965050604089013567ffffffffffffffff81111561410e5761410d613acd565b5b61411a8b828c01613d82565b9450945050606089013567ffffffffffffffff81111561413d5761413c613acd565b5b6141498b828c01613d82565b92509250509295985092959890939650565b60006020828403121561417157614170613ac8565b5b600061417f84828501613d1e565b91505092915050565b61419181613c48565b82525050565b60006020820190506141ac6000830184614188565b92915050565b60006141bd82613cab565b9050919050565b6141cd816141b2565b82525050565b60006020820190506141e860008301846141c4565b92915050565b6141f781613b57565b811461420257600080fd5b50565b600081359050614214816141ee565b92915050565b6000806040838503121561423157614230613ac8565b5b600061423f85828601613d1e565b925050602061425085828601614205565b9150509250929050565b600067ffffffffffffffff82111561427557614274613e7d565b5b61427e82613bdc565b9050602081019050919050565b600061429e6142998461425a565b613edd565b9050828152602081018484840111156142ba576142b9613e78565b5b6142c5848285613f29565b509392505050565b600082601f8301126142e2576142e1613d73565b5b81356142f284826020860161428b565b91505092915050565b6000806000806080858703121561431557614314613ac8565b5b600061432387828801613d1e565b945050602061433487828801613d1e565b935050604061434587828801613c69565b925050606085013567ffffffffffffffff81111561436657614365613acd565b5b614372878288016142cd565b91505092959194509250565b6000806040838503121561439557614394613ac8565b5b60006143a385828601613d1e565b92505060206143b485828601613d1e565b9150509250929050565b600081519050919050565b600082825260208201905092915050565b6000819050602082019050919050565b600082825260208201905092915050565b600061440682613b8d565b61441081856143ea565b9350614420818560208601613ba9565b61442981613bdc565b840191505092915050565b600061444083836143fb565b905092915050565b6000602082019050919050565b6000614460826143be565b61446a81856143c9565b93508360208202850161447c856143da565b8060005b858110156144b857848403895281516144998582614434565b94506144a483614448565b925060208a01995050600181019050614480565b50829750879550505050505092915050565b600060208201905081810360008301526144e48184614455565b905092915050565b7f4e487b7100000000000000000000000000000000000000000000000000000000600052602260045260246000fd5b6000600282049050600182168061453357607f821691505b60208210811415614547576145466144ec565b5b50919050565b7f4552433732313a20617070726f76616c20746f2063757272656e74206f776e6560008201527f7200000000000000000000000000000000000000000000000000000000000000602082015250565b60006145a9602183613b98565b91506145b48261454d565b604082019050919050565b600060208201905081810360008301526145d88161459c565b9050919050565b7f4552433732313a20617070726f76652063616c6c6572206973206e6f7420746f60008201527f6b656e206f776e6572206f7220617070726f76656420666f7220616c6c000000602082015250565b600061463b603d83613b98565b9150614646826145df565b604082019050919050565b6000602082019050818103600083015261466a8161462e565b9050919050565b600081905092915050565b60006146888385614671565b9350614695838584613f29565b82840190509392505050565b60006146ae82848661467c565b91508190509392505050565b7f4552433732313a2063616c6c6572206973206e6f7420746f6b656e206f776e6560008201527f72206f7220617070726f76656400000000000000000000000000000000000000602082015250565b6000614716602d83613b98565b9150614721826146ba565b604082019050919050565b6000602082019050818103600083015261474581614709565b9050919050565b600081905092915050565b50565b600061476760008361474c565b915061477282614757565b600082019050919050565b60006147888261475a565b9150819050919050565b7f4661696c656420746f207769746864726177204d415449432e00000000000000600082015250565b60006147c8601983613b98565b91506147d382614792565b602082019050919050565b600060208201905081810360008301526147f7816147bb565b9050919050565b7f4552433732313a20696e76616c696420746f6b656e2049440000000000000000600082015250565b6000614834601883613b98565b915061483f826147fe565b602082019050919050565b6000602082019050818103600083015261486381614827565b9050919050565b7f4552433732313a2061646472657373207a65726f206973206e6f74206120766160008201527f6c6964206f776e65720000000000000000000000000000000000000000000000602082015250565b60006148c6602983613b98565b91506148d18261486a565b604082019050919050565b600060208201905081810360008301526148f5816148b9565b9050919050565b600061490782613b8d565b6149118185614671565b9350614921818560208601613ba9565b80840191505092915050565b600061493982856148fc565b915061494582846148fc565b91508190509392505050565b600061495d8385613b98565b935061496a838584613f29565b61497383613bdc565b840190509392505050565b60006020820190508181036000830152614999818486614951565b90509392505050565b7f4e6f7420656e6f756768204d6174696320706169640000000000000000000000600082015250565b60006149d8601583613b98565b91506149e3826149a2565b602082019050919050565b60006020820190508181036000830152614a07816149cb565b9050919050565b7f2e00000000000000000000000000000000000000000000000000000000000000600082015250565b6000614a44600183614671565b9150614a4f82614a0e565b600182019050919050565b60008190508160005260206000209050919050565b60008154614a7c8161451b565b614a868186614671565b94506001821660008114614aa15760018114614ab257614ae5565b60ff19831686528186019350614ae5565b614abb85614a5a565b60005b83811015614add57815481890152600182019150602081019050614abe565b838801955050505b50505092915050565b6000614afb82858761467c565b9150614b0682614a37565b9150614b128284614a6f565b9150819050949350505050565b7f28646f74292e0000000000000000000000000000000000000000000000000000600082015250565b6000614b55600683614671565b9150614b6082614b1f565b600682019050919050565b6000614b7682614b48565b9150614b828284614a6f565b915081905092915050565b6000614b998289614a6f565b9150614ba682878961467c565b9150614bb28286614a6f565b9150614bbe82856148fc565b9150614bca8284614a6f565b9150819050979650505050505050565b7f7b226e616d65223a202200000000000000000000000000000000000000000000600082015250565b6000614c10600a83614671565b9150614c1b82614bda565b600a82019050919050565b7f222c20226465736372697074696f6e223a20224120646f6d61696e206f6e207460008201527f686520546f6b65727320544c44204e616d652053657276696365222c2022696d60208201527f616765223a2022646174613a696d6167652f7376672b786d6c3b62617365363460408201527f2c00000000000000000000000000000000000000000000000000000000000000606082015250565b6000614cce606183614671565b9150614cd982614c26565b606182019050919050565b7f222c226c656e677468223a220000000000000000000000000000000000000000600082015250565b6000614d1a600c83614671565b9150614d2582614ce4565b600c82019050919050565b7f227d000000000000000000000000000000000000000000000000000000000000600082015250565b6000614d66600283614671565b9150614d7182614d30565b600282019050919050565b6000614d8782614c03565b9150614d9382866148fc565b9150614d9e82614cc1565b9150614daa82856148fc565b9150614db582614d0d565b9150614dc182846148fc565b9150614dcc82614d59565b9150819050949350505050565b7f646174613a6170706c69636174696f6e2f6a736f6e3b6261736536342c000000600082015250565b6000614e0f601d83614671565b9150614e1a82614dd9565b601d82019050919050565b6000614e3082614e02565b9150614e3c82846148fc565b915081905092915050565b7f4e487b7100000000000000000000000000000000000000000000000000000000600052603260045260246000fd5b7f4e487b7100000000000000000000000000000000000000000000000000000000600052601160045260246000fd5b6000614eb082613c48565b91507fffffffffffffffffffffffffffffffffffffffffffffffffffffffffffffffff821415614ee357614ee2614e76565b5b600182019050919050565b60006040820190508181036000830152614f088185613bed565b90508181036020830152614f1c8184613bed565b90509392505050565b7f4552433732313a207472616e736665722066726f6d20696e636f72726563742060008201527f6f776e6572000000000000000000000000000000000000000000000000000000602082015250565b6000614f81602583613b98565b9150614f8c82614f25565b604082019050919050565b60006020820190508181036000830152614fb081614f74565b9050919050565b7f4552433732313a207472616e7366657220746f20746865207a65726f2061646460008201527f7265737300000000000000000000000000000000000000000000000000000000602082015250565b6000615013602483613b98565b915061501e82614fb7565b604082019050919050565b6000602082019050818103600083015261504281615006565b9050919050565b600061505482613c48565b915061505f83613c48565b9250827fffffffffffffffffffffffffffffffffffffffffffffffffffffffffffffffff0382111561509457615093614e76565b5b828201905092915050565b7f4552433732313a20617070726f766520746f2063616c6c657200000000000000600082015250565b60006150d5601983613b98565b91506150e08261509f565b602082019050919050565b60006020820190508181036000830152615104816150c8565b9050919050565b7f4552433732313a207472616e7366657220746f206e6f6e20455243373231526560008201527f63656976657220696d706c656d656e7465720000000000000000000000000000602082015250565b6000615167603283613b98565b91506151728261510b565b604082019050919050565b600060208201905081810360008301526151968161515a565b9050919050565b600060408201905081810360008301526151b78185613bed565b90506151c66020830184613cdd565b9392505050565b7f4e487b7100000000000000000000000000000000000000000000000000000000600052601260045260246000fd5b600060808201905081810360008301526152168187613bed565b9050818103602083015261522a8186613bed565b9050818103604083015261523e8185613bed565b905061524d6060830184614188565b95945050505050565b600061526182613c48565b915061526c83613c48565b92508261527c5761527b6151cd565b5b828204905092915050565b600061529282613c48565b915061529d83613c48565b9250817fffffffffffffffffffffffffffffffffffffffffffffffffffffffffffffffff04831182151516156152d6576152d5614e76565b5b828202905092915050565b7f45524337323155524953746f726167653a2055524920736574206f66206e6f6e60008201527f6578697374656e7420746f6b656e000000000000000000000000000000000000602082015250565b600061533d602e83613b98565b9150615348826152e1565b604082019050919050565b6000602082019050818103600083015261536c81615330565b9050919050565b6000606082019050818103600083015261538d8186613bed565b905061539c6020830185614188565b81810360408301526153ae8184613bed565b9050949350505050565b60006153c382613c48565b91506153ce83613c48565b9250828210156153e1576153e0614e76565b5b828203905092915050565b600081519050919050565b600082825260208201905092915050565b6000615413826153ec565b61541d81856153f7565b935061542d818560208601613ba9565b61543681613bdc565b840191505092915050565b60006080820190506154566000830187613cdd565b6154636020830186613cdd565b6154706040830185614188565b81810360608301526154828184615408565b905095945050505050565b60008151905061549c81613afe565b92915050565b6000602082840312156154b8576154b7613ac8565b5b60006154c68482850161548d565b91505092915050565b7f4552433732313a206d696e7420746f20746865207a65726f2061646472657373600082015250565b6000615505602083613b98565b9150615510826154cf565b602082019050919050565b60006020820190508181036000830152615534816154f8565b9050919050565b7f4552433732313a20746f6b656e20616c7265616479206d696e74656400000000600082015250565b6000615571601c83613b98565b915061557c8261553b565b602082019050919050565b600060208201905081810360008301526155a081615564565b905091905056fe0a2d2d2d2d2d2d2d2d2d2d2d2d2d2d2d2d2d2d2d2d2d2d2d2d2d2d2d2d2d2d2d2d2d2d2d2d2d2d2d2d2d2d2d2d2d2d2d2d2d2d2d2d2d2d2d2d5265676973746572696e672025732e2573206f6e2074686520636f6e7472616374207769746820746f6b656e49442025642d2d2d2d2d2d2d2d2d2d2d2d2d2d2d2d2d2d2d2d2d2d2d2d2d2d2d2d2d2d2d2d2d2d2d2d2d2d2d2d2d2d2d2d2d2d2d2d2d2d2d2d2d2d2d2d0a4142434445464748494a4b4c4d4e4f505152535455565758595a6162636465666768696a6b6c6d6e6f707172737475767778797a303132333435363738392b2fa26469706673582212206488d54edfa30fe4141407ab25af714f14eeb07feb56155e925efb597722e88164736f6c634300080a00333c73766720786d6c6e733d22687474703a2f2f7777772e77332e6f72672f323030302f737667222077696474683d2232373022206865696768743d22323730222066696c6c3d226e6f6e65223e3c706174682066696c6c3d2275726c282361292220643d224d302030683237307632373048307a222f3e3c646566733e3c66696c7465722069643d22622220636f6c6f722d696e746572706f6c6174696f6e2d66696c746572733d2273524742222066696c746572556e6974733d227573657253706163654f6e55736522206865696768743d22323730222077696474683d22323730223e3c666544726f70536861646f772064783d2230222064793d22312220737464446576696174696f6e3d22322220666c6f6f642d6f7061636974793d222e323235222077696474683d223230302522206865696768743d2232303025222f3e3c2f66696c7465723e3c2f646566733e3c706174682066696c6c3d22236666662220643d224d32302e3233342032352e38383761352e33303820352e33303820302030203020332e33303120322e3431762d322e3837356c2d342e3638372d332e3132356131312e3430322031312e34303220302030203020312e33383620332e35395a6d32372e38373120332e3739335631382e3632354834322e393861372e323120372e32312030203020302d352e30363220322e3039346c2d2e3836372e38372d2e3837312d2e383761372e32303420372e3230342030203020302d352e3036332d322e303934682d352e3132355632392e3638633020362e30393720342e3936312031312e3035342031312e3035392031312e30353420362e30393720302031312e3035342d342e3935372031312e3035342d31312e3035345a4d32392e34352032362e363133632d2e3931342d2e3833322d312e32332d322e3035382d2e3832342d332e3137356c2e3431342d312e313320342e33323420312e393635762e383634633020312e3135322d312e30323720322e3038362d322e32393320322e30383661322e34313820322e3431382030203020312d312e36322d2e36315a6d372e3630322031302e34333861342e39313820342e3931382030203020312d342e3931342d342e39313468322e34353761322e34353920322e34353920302030203020322e34353720322e34353720322e34353920322e34353920302030203020322e3435372d322e34353768322e34353761342e39313820342e3931382030203020312d342e39313420342e3931345a6d352e3937362d392e383238632d312e32363520302d322e3239332d2e3933342d322e3239332d322e303836762d2e3836346c342e3332352d312e3936342e34313420312e313238632e343120312e3131382e303920322e3334342d2e38323520332e3137362d2e34332e33392d312e3031312e36312d312e36322e36315a6d302030222f3e3c6720636c69702d706174683d2275726c28236134346232306538646529223e3c706174682066696c6c3d22236666662220643d224d32332e3731352034342e3336332032352e3531322034346c2d312e3731352d322e3734326132312e3835352032312e3835352030203020302d392e3639352d382e343232632d332e322d312e3432322d362d332e3436392d382e3332352d362e3038366c2d342e3332342d342e3836336131392e3836322031392e38363220302030203020332e33313720392e393820392e33303820392e33303820302030203120312e353720352e31383420392e323720392e32372030203020312d312e31323120342e3338362032372e3636322032372e3636322030203020312031382e34393620322e3932365a6d302030222f3e3c2f673e3c706174682066696c6c3d22236666662220643d224d35302e3536332032382e32393761352e32393820352e32393820302030203020332e332d322e34312031312e3331372031312e33313720302030203020312e33392d332e35396c2d342e363920332e3132355a6d2d31302e30392032332e30333963312e3737372d322e30363320322e35352d352e34383420322e3731382d362e393838762d322e3634396131332e3339342031332e3339342030203020312d31322e323835203076322e363435632e31373620312e3530342e39353320342e39323620322e37323320362e39383861332e32393420332e32393420302030203120332e3032332d312e393936682e37393363312e3336203020322e3532342e38323420332e30323820325a6d2d332e3832312e343537612e3833322e3833322030203020302d2e3833322e3832386330202e31312e3032342e3231312e3036332e3331336c312e31363820322e39323120312e3136382d322e393231612e38332e38332030203020302d2e3737332d312e31345a6d31372e3739332d362e36323120322e37322e35343361382e36313520382e36313520302030203120352e38313220342e32352032312e30342032312e303420302030203120352e33322d362e3133372032352e3236382032352e3236382030203020302d31332e38353220312e3334345a6d302030222f3e3c6720636c69702d706174683d2275726c28233332356436646539343829223e3c706174682066696c6c3d22236666662220643d226d37322e3634382032312e3838372d342e33323420342e3836334132342e3230342032342e3230342030203020312036302033322e3833366132312e3835352032312e3835352030203020302d392e36393520382e3432324c34382e35392034346c312e3739372e3336336132372e3635342032372e3635342030203020312031382e3439362d322e39323520392e323720392e32372030203020312d312e3132312d342e33383763302d312e3835322e3534332d332e36343520312e3536362d352e3138346131392e3835342031392e38353420302030203020332e33322d392e39385a6d302030222f3e3c2f673e3c706174682066696c6c3d22236666662220643d226d31362e3933382034352e37313520322e3731342d2e3534336132352e3138372032352e3138372030203020302d31332e3835312d312e33342032312e3034352032312e30343520302030203120352e33323420362e31333320382e35393820382e35393820302030203120352e3831332d342e32355a6d302030222f3e3c6720636c69702d706174683d2275726c28233639363232623238336529223e3c706174682066696c6c3d22236666662220643d224d32322e3330392031302e303233632e3339342e3133332e3738352e323520312e31382e3337326131342e3635312031342e3635312030203020302d312e313820352e37373376352e3438346c312e3232362e3832762d362e33303468372e35383261392e3720392e3720302030203120352e39333420322e30343720392e36383220392e36383220302030203120352e39332d322e30343768372e35383176362e3330356c312e3233312d2e3832762d352e34383563302d322e30352d2e3432322d342d312e3138342d352e3737332e3339352d2e3132322e37392d2e32333920312e3138342d2e33373261382e38393220382e38393220302030203020342e3931342d372e393439762d2e3634386131342e3635322031342e3635322030203020312d382e31313720322e343537682d332e34316131342e36332031342e36332030203020302d382e31332d322e343537632d332e30303320302d352e382e3930362d382e31333220322e343537682d332e34316131342e36332031342e36332030203020312d382e3131332d322e343537762e36343861382e38383420382e38383420302030203020342e39313420372e39355a6d302030222f3e3c2f673e3c646566733e3c6c696e6561724772616469656e742069643d2261222078313d2230222079313d2230222078323d22323730222079323d2232373022206772616469656e74556e6974733d227573657253706163654f6e557365223e3c73746f702f3e3c73746f70206f66667365743d2231222073746f702d636f6c6f723d22726564222073746f702d6f7061636974793d222e3939222f3e3c2f6c696e6561724772616469656e743e3c2f646566733e3c7465787420783d2235302220793d223530252220666f6e742d73697a653d223237222066696c6c3d2223666666222066696c7465723d2275726c282362292220666f6e742d66616d696c793d22506c7573204a616b617274612053616e732c44656a6156752053616e732c4e6f746f20436f6c6f7220456d6f6a692c4170706c6520436f6c6f7220456d6f6a692c73616e732d73657269662220666f6e742d7765696768743d22626f6c64223e3c2f746578743e3c7465787420783d223131352220793d223233352220666f6e742d73697a653d223330222066696c6c3d2223666666222066696c7465723d2275726c282362292220666f6e742d66616d696c793d22506c7573204a616b617274612053616e732c44656a6156752053616e732c4e6f746f20436f6c6f7220456d6f6a692c4170706c6520436f6c6f7220456d6f6a692c73616e732d73657269662220666f6e742d7765696768743d22626f6c64223e",
    "linkReferences": {},
    "deployedLinkReferences": {}
}