{
    "_format": "hh-sol-artifact-1",
    "contractName": "Domains",
    "sourceName": "contracts/Domains.sol",
    "abi": [
        {
            "inputs": [
                {
                    "internalType": "string",
                    "name": "_tld",
                    "type": "string"
                }
            ],
            "stateMutability": "payable",
            "type": "constructor"
        },
        {
            "inputs": [],
            "name": "AlreadyRegistered",
            "type": "error"
        },
        {
            "inputs": [
                {
                    "internalType": "string",
                    "name": "name",
                    "type": "string"
                }
            ],
            "name": "InvalidName",
            "type": "error"
        },
        {
            "inputs": [],
            "name": "Unauthorized",
            "type": "error"
        },
        {
            "anonymous": false,
            "inputs": [
                {
                    "indexed": true,
                    "internalType": "address",
                    "name": "owner",
                    "type": "address"
                },
                {
                    "indexed": true,
                    "internalType": "address",
                    "name": "approved",
                    "type": "address"
                },
                {
                    "indexed": true,
                    "internalType": "uint256",
                    "name": "tokenId",
                    "type": "uint256"
                }
            ],
            "name": "Approval",
            "type": "event"
        },
        {
            "anonymous": false,
            "inputs": [
                {
                    "indexed": true,
                    "internalType": "address",
                    "name": "owner",
                    "type": "address"
                },
                {
                    "indexed": true,
                    "internalType": "address",
                    "name": "operator",
                    "type": "address"
                },
                {
                    "indexed": false,
                    "internalType": "bool",
                    "name": "approved",
                    "type": "bool"
                }
            ],
            "name": "ApprovalForAll",
            "type": "event"
        },
        {
            "anonymous": false,
            "inputs": [
                {
                    "indexed": true,
                    "internalType": "address",
                    "name": "from",
                    "type": "address"
                },
                {
                    "indexed": true,
                    "internalType": "address",
                    "name": "to",
                    "type": "address"
                },
                {
                    "indexed": true,
                    "internalType": "uint256",
                    "name": "tokenId",
                    "type": "uint256"
                }
            ],
            "name": "Transfer",
            "type": "event"
        },
        {
            "inputs": [
                {
                    "internalType": "address",
                    "name": "to",
                    "type": "address"
                },
                {
                    "internalType": "uint256",
                    "name": "tokenId",
                    "type": "uint256"
                }
            ],
            "name": "approve",
            "outputs": [],
            "stateMutability": "nonpayable",
            "type": "function"
        },
        {
            "inputs": [
                {
                    "internalType": "address",
                    "name": "owner",
                    "type": "address"
                }
            ],
            "name": "balanceOf",
            "outputs": [
                {
                    "internalType": "uint256",
                    "name": "",
                    "type": "uint256"
                }
            ],
            "stateMutability": "view",
            "type": "function"
        },
        {
            "inputs": [
                {
                    "internalType": "string",
                    "name": "",
                    "type": "string"
                }
            ],
            "name": "domains",
            "outputs": [
                {
                    "internalType": "address",
                    "name": "",
                    "type": "address"
                }
            ],
            "stateMutability": "view",
            "type": "function"
        },
        {
            "inputs": [
                {
                    "internalType": "string",
                    "name": "",
                    "type": "string"
                }
            ],
            "name": "emails",
            "outputs": [
                {
                    "internalType": "string",
                    "name": "",
                    "type": "string"
                }
            ],
            "stateMutability": "view",
            "type": "function"
        },
        {
            "inputs": [
                {
                    "internalType": "string",
                    "name": "name",
                    "type": "string"
                }
            ],
            "name": "getAddress",
            "outputs": [
                {
                    "internalType": "address",
                    "name": "",
                    "type": "address"
                }
            ],
            "stateMutability": "view",
            "type": "function"
        },
        {
            "inputs": [],
            "name": "getAllNames",
            "outputs": [
                {
                    "internalType": "string[]",
                    "name": "",
                    "type": "string[]"
                }
            ],
            "stateMutability": "view",
            "type": "function"
        },
        {
            "inputs": [
                {
                    "internalType": "uint256",
                    "name": "tokenId",
                    "type": "uint256"
                }
            ],
            "name": "getApproved",
            "outputs": [
                {
                    "internalType": "address",
                    "name": "",
                    "type": "address"
                }
            ],
            "stateMutability": "view",
            "type": "function"
        },
        {
            "inputs": [
                {
                    "internalType": "string",
                    "name": "name",
                    "type": "string"
                }
            ],
            "name": "getEmail",
            "outputs": [
                {
                    "internalType": "string",
                    "name": "",
                    "type": "string"
                }
            ],
            "stateMutability": "view",
            "type": "function"
        },
        {
            "inputs": [
                {
                    "internalType": "string",
                    "name": "name",
                    "type": "string"
                }
            ],
            "name": "getRecord",
            "outputs": [
                {
                    "internalType": "string",
                    "name": "",
                    "type": "string"
                }
            ],
            "stateMutability": "view",
            "type": "function"
        },
        {
            "inputs": [
                {
                    "internalType": "string",
                    "name": "name",
                    "type": "string"
                }
            ],
            "name": "getWebpage",
            "outputs": [
                {
                    "internalType": "string",
                    "name": "",
                    "type": "string"
                }
            ],
            "stateMutability": "view",
            "type": "function"
        },
        {
            "inputs": [
                {
                    "internalType": "address",
                    "name": "owner",
                    "type": "address"
                },
                {
                    "internalType": "address",
                    "name": "operator",
                    "type": "address"
                }
            ],
            "name": "isApprovedForAll",
            "outputs": [
                {
                    "internalType": "bool",
                    "name": "",
                    "type": "bool"
                }
            ],
            "stateMutability": "view",
            "type": "function"
        },
        {
            "inputs": [],
            "name": "isOwner",
            "outputs": [
                {
                    "internalType": "bool",
                    "name": "",
                    "type": "bool"
                }
            ],
            "stateMutability": "view",
            "type": "function"
        },
        {
            "inputs": [],
            "name": "name",
            "outputs": [
                {
                    "internalType": "string",
                    "name": "",
                    "type": "string"
                }
            ],
            "stateMutability": "view",
            "type": "function"
        },
        {
            "inputs": [
                {
                    "internalType": "uint256",
                    "name": "",
                    "type": "uint256"
                }
            ],
            "name": "names",
            "outputs": [
                {
                    "internalType": "string",
                    "name": "",
                    "type": "string"
                }
            ],
            "stateMutability": "view",
            "type": "function"
        },
        {
            "inputs": [],
            "name": "owner",
            "outputs": [
                {
                    "internalType": "address payable",
                    "name": "",
                    "type": "address"
                }
            ],
            "stateMutability": "view",
            "type": "function"
        },
        {
            "inputs": [
                {
                    "internalType": "uint256",
                    "name": "tokenId",
                    "type": "uint256"
                }
            ],
            "name": "ownerOf",
            "outputs": [
                {
                    "internalType": "address",
                    "name": "",
                    "type": "address"
                }
            ],
            "stateMutability": "view",
            "type": "function"
        },
        {
            "inputs": [
                {
                    "internalType": "string",
                    "name": "name",
                    "type": "string"
                }
            ],
            "name": "price",
            "outputs": [
                {
                    "internalType": "uint256",
                    "name": "",
                    "type": "uint256"
                }
            ],
            "stateMutability": "pure",
            "type": "function"
        },
        {
            "inputs": [
                {
                    "internalType": "string",
                    "name": "",
                    "type": "string"
                }
            ],
            "name": "records",
            "outputs": [
                {
                    "internalType": "string",
                    "name": "",
                    "type": "string"
                }
            ],
            "stateMutability": "view",
            "type": "function"
        },
        {
            "inputs": [
                {
                    "internalType": "string",
                    "name": "name",
                    "type": "string"
                }
            ],
            "name": "register",
            "outputs": [],
            "stateMutability": "payable",
            "type": "function"
        },
        {
            "inputs": [
                {
                    "internalType": "address",
                    "name": "from",
                    "type": "address"
                },
                {
                    "internalType": "address",
                    "name": "to",
                    "type": "address"
                },
                {
                    "internalType": "uint256",
                    "name": "tokenId",
                    "type": "uint256"
                }
            ],
            "name": "safeTransferFrom",
            "outputs": [],
            "stateMutability": "nonpayable",
            "type": "function"
        },
        {
            "inputs": [
                {
                    "internalType": "address",
                    "name": "from",
                    "type": "address"
                },
                {
                    "internalType": "address",
                    "name": "to",
                    "type": "address"
                },
                {
                    "internalType": "uint256",
                    "name": "tokenId",
                    "type": "uint256"
                },
                {
                    "internalType": "bytes",
                    "name": "data",
                    "type": "bytes"
                }
            ],
            "name": "safeTransferFrom",
            "outputs": [],
            "stateMutability": "nonpayable",
            "type": "function"
        },
        {
            "inputs": [
                {
                    "internalType": "address",
                    "name": "operator",
                    "type": "address"
                },
                {
                    "internalType": "bool",
                    "name": "approved",
                    "type": "bool"
                }
            ],
            "name": "setApprovalForAll",
            "outputs": [],
            "stateMutability": "nonpayable",
            "type": "function"
        },
        {
            "inputs": [
                {
                    "internalType": "string",
                    "name": "name",
                    "type": "string"
                },
                {
                    "internalType": "string",
                    "name": "email",
                    "type": "string"
                }
            ],
            "name": "setEmail",
            "outputs": [],
            "stateMutability": "nonpayable",
            "type": "function"
        },
        {
            "inputs": [
                {
                    "internalType": "string",
                    "name": "name",
                    "type": "string"
                },
                {
                    "internalType": "string",
                    "name": "record",
                    "type": "string"
                }
            ],
            "name": "setRecord",
            "outputs": [],
            "stateMutability": "nonpayable",
            "type": "function"
        },
        {
            "inputs": [
                {
                    "internalType": "string",
                    "name": "name",
                    "type": "string"
                },
                {
                    "internalType": "string",
                    "name": "webpage",
                    "type": "string"
                }
            ],
            "name": "setWebpage",
            "outputs": [],
            "stateMutability": "nonpayable",
            "type": "function"
        },
        {
            "inputs": [
                {
                    "internalType": "bytes4",
                    "name": "interfaceId",
                    "type": "bytes4"
                }
            ],
            "name": "supportsInterface",
            "outputs": [
                {
                    "internalType": "bool",
                    "name": "",
                    "type": "bool"
                }
            ],
            "stateMutability": "view",
            "type": "function"
        },
        {
            "inputs": [],
            "name": "symbol",
            "outputs": [
                {
                    "internalType": "string",
                    "name": "",
                    "type": "string"
                }
            ],
            "stateMutability": "view",
            "type": "function"
        },
        {
            "inputs": [],
            "name": "tld",
            "outputs": [
                {
                    "internalType": "string",
                    "name": "",
                    "type": "string"
                }
            ],
            "stateMutability": "view",
            "type": "function"
        },
        {
            "inputs": [
                {
                    "internalType": "uint256",
                    "name": "tokenId",
                    "type": "uint256"
                }
            ],
            "name": "tokenURI",
            "outputs": [
                {
                    "internalType": "string",
                    "name": "",
                    "type": "string"
                }
            ],
            "stateMutability": "view",
            "type": "function"
        },
        {
            "inputs": [
                {
                    "internalType": "address",
                    "name": "from",
                    "type": "address"
                },
                {
                    "internalType": "address",
                    "name": "to",
                    "type": "address"
                },
                {
                    "internalType": "uint256",
                    "name": "tokenId",
                    "type": "uint256"
                }
            ],
            "name": "transferFrom",
            "outputs": [],
            "stateMutability": "nonpayable",
            "type": "function"
        },
        {
            "inputs": [
                {
                    "internalType": "string",
                    "name": "name",
                    "type": "string"
                }
            ],
            "name": "valid",
            "outputs": [
                {
                    "internalType": "bool",
                    "name": "",
                    "type": "bool"
                }
            ],
            "stateMutability": "pure",
            "type": "function"
        },
        {
            "inputs": [
                {
                    "internalType": "string",
                    "name": "",
                    "type": "string"
                }
            ],
            "name": "webpages",
            "outputs": [
                {
                    "internalType": "string",
                    "name": "",
                    "type": "string"
                }
            ],
            "stateMutability": "view",
            "type": "function"
        },
        {
            "inputs": [],
            "name": "withdraw",
            "outputs": [],
            "stateMutability": "nonpayable",
            "type": "function"
        }
    ],
    "bytecode": "0x608060405260405180610c800160405280610c5b815260200162005a6b610c5b91396009908051906020019062000038929190620002fa565b506040518060e0016040528060b68152602001620066c660b69139600a90805190602001906200006a929190620002fa565b506040518060400160405280600d81526020017f3c2f746578743e3c2f7376673e00000000000000000000000000000000000000815250600b9080519060200190620000b8929190620002fa565b506040516200677c3803806200677c8339818101604052810190620000de919062000547565b6040518060400160405280601781526020017f28646f74292e68656c6c204e616d6520536572766963650000000000000000008152506040518060400160405280600481526020017f44484e5300000000000000000000000000000000000000000000000000000000815250816000908051906020019062000162929190620002fa565b5080600190805190602001906200017b929190620002fa565b50505033601160006101000a81548173ffffffffffffffffffffffffffffffffffffffff021916908373ffffffffffffffffffffffffffffffffffffffff1602179055508060089080519060200190620001d7929190620002fa565b50620002246040518060400160405280601881526020017f2573206e616d652073657276696365206465706c6f7965640000000000000000815250826200022b60201b620021341760201c565b5062000695565b620002cd828260405160240162000244929190620005f5565b6040516020818303038152906040527f4b5c4277000000000000000000000000000000000000000000000000000000007bffffffffffffffffffffffffffffffffffffffffffffffffffffffff19166020820180517bffffffffffffffffffffffffffffffffffffffffffffffffffffffff8381831617835250505050620002d160201b60201c565b5050565b60008151905060006a636f6e736f6c652e6c6f679050602083016000808483855afa5050505050565b82805462000308906200065f565b90600052602060002090601f0160209004810192826200032c576000855562000378565b82601f106200034757805160ff191683800117855562000378565b8280016001018555821562000378579182015b82811115620003775782518255916020019190600101906200035a565b5b5090506200038791906200038b565b5090565b5b80821115620003a65760008160009055506001016200038c565b5090565b6000604051905090565b600080fd5b600080fd5b600080fd5b600080fd5b6000601f19601f8301169050919050565b7f4e487b7100000000000000000000000000000000000000000000000000000000600052604160045260246000fd5b6200041382620003c8565b810181811067ffffffffffffffff82111715620004355762000434620003d9565b5b80604052505050565b60006200044a620003aa565b905062000458828262000408565b919050565b600067ffffffffffffffff8211156200047b576200047a620003d9565b5b6200048682620003c8565b9050602081019050919050565b60005b83811015620004b357808201518184015260208101905062000496565b83811115620004c3576000848401525b50505050565b6000620004e0620004da846200045d565b6200043e565b905082815260208101848484011115620004ff57620004fe620003c3565b5b6200050c84828562000493565b509392505050565b600082601f8301126200052c576200052b620003be565b5b81516200053e848260208601620004c9565b91505092915050565b60006020828403121562000560576200055f620003b4565b5b600082015167ffffffffffffffff811115620005815762000580620003b9565b5b6200058f8482850162000514565b91505092915050565b600081519050919050565b600082825260208201905092915050565b6000620005c18262000598565b620005cd8185620005a3565b9350620005df81856020860162000493565b620005ea81620003c8565b840191505092915050565b60006040820190508181036000830152620006118185620005b4565b90508181036020830152620006278184620005b4565b90509392505050565b7f4e487b7100000000000000000000000000000000000000000000000000000000600052602260045260246000fd5b600060028204905060018216806200067857607f821691505b602082108114156200068f576200068e62000630565b5b50919050565b6153c680620006a56000396000f3fe6080604052600436106101ee5760003560e01c80638da5cb5b1161010d578063c1880a98116100a0578063e985e9c51161006f578063e985e9c51461077f578063f2c298be146107bc578063f77e8bd7146107d8578063fb825e5f14610815578063fe2c619814610840576101ee565b8063c1880a98146106b3578063c87b56dd146106dc578063d35bfbd814610719578063d5b0d30d14610742576101ee565b8063a22cb465116100dc578063a22cb465146105e7578063b4ba089814610610578063b88d4fde1461064d578063bf40fac114610676576101ee565b80638da5cb5b146105295780638f32d59b1461055457806395d89b411461057f5780639791c097146105aa576101ee565b80633ccfd60b11610185578063541e771d11610154578063541e771d1461043557806360730a8a146104725780636352211e146104af57806370a08231146104ec576101ee565b80633ccfd60b1461038f57806340e52b9c146103a657806342842e0e146103cf5780634622ab03146103f8576101ee565b806311dd8845116101c157806311dd8845146102c157806323b872dd146102fe57806326449235146103275780632d55143214610364576101ee565b806301ffc9a7146101f357806306fdde0314610230578063081812fc1461025b578063095ea7b314610298575b600080fd5b3480156101ff57600080fd5b5061021a60048036038101906102159190613919565b61087d565b6040516102279190613961565b60405180910390f35b34801561023c57600080fd5b5061024561095f565b6040516102529190613a15565b60405180910390f35b34801561026757600080fd5b50610282600480360381019061027d9190613a6d565b6109f1565b60405161028f9190613adb565b60405180910390f35b3480156102a457600080fd5b506102bf60048036038101906102ba9190613b22565b610a37565b005b3480156102cd57600080fd5b506102e860048036038101906102e39190613bc7565b610b4f565b6040516102f59190613a15565b60405180910390f35b34801561030a57600080fd5b5061032560048036038101906103209190613c14565b610c02565b005b34801561033357600080fd5b5061034e60048036038101906103499190613d97565b610c62565b60405161035b9190613adb565b60405180910390f35b34801561037057600080fd5b50610379610cab565b6040516103869190613a15565b60405180910390f35b34801561039b57600080fd5b506103a4610d39565b005b3480156103b257600080fd5b506103cd60048036038101906103c89190613de0565b610dff565b005b3480156103db57600080fd5b506103f660048036038101906103f19190613c14565b610ead565b005b34801561040457600080fd5b5061041f600480360381019061041a9190613a6d565b610ecd565b60405161042c9190613a15565b60405180910390f35b34801561044157600080fd5b5061045c60048036038101906104579190613d97565b610f6d565b6040516104699190613a15565b60405180910390f35b34801561047e57600080fd5b5061049960048036038101906104949190613d97565b611023565b6040516104a69190613a15565b60405180910390f35b3480156104bb57600080fd5b506104d660048036038101906104d19190613a6d565b6110d9565b6040516104e39190613adb565b60405180910390f35b3480156104f857600080fd5b50610513600480360381019061050e9190613e61565b611160565b6040516105209190613e9d565b60405180910390f35b34801561053557600080fd5b5061053e611218565b60405161054b9190613ed9565b60405180910390f35b34801561056057600080fd5b5061056961123e565b6040516105769190613961565b60405180910390f35b34801561058b57600080fd5b50610594611296565b6040516105a19190613a15565b60405180910390f35b3480156105b657600080fd5b506105d160048036038101906105cc9190613bc7565b611328565b6040516105de9190613961565b60405180910390f35b3480156105f357600080fd5b5061060e60048036038101906106099190613f20565b6113dc565b005b34801561061c57600080fd5b5061063760048036038101906106329190613bc7565b6113f2565b6040516106449190613a15565b60405180910390f35b34801561065957600080fd5b50610674600480360381019061066f9190614001565b6114a5565b005b34801561068257600080fd5b5061069d60048036038101906106989190613bc7565b611507565b6040516106aa9190613adb565b60405180910390f35b3480156106bf57600080fd5b506106da60048036038101906106d59190613de0565b611552565b005b3480156106e857600080fd5b5061070360048036038101906106fe9190613a6d565b61162d565b6040516107109190613a15565b60405180910390f35b34801561072557600080fd5b50610740600480360381019061073b9190613de0565b611740565b005b34801561074e57600080fd5b5061076960048036038101906107649190613d97565b61182d565b6040516107769190613a15565b60405180910390f35b34801561078b57600080fd5b506107a660048036038101906107a19190614084565b6118e3565b6040516107b39190613961565b60405180910390f35b6107d660048036038101906107d19190613bc7565b611977565b005b3480156107e457600080fd5b506107ff60048036038101906107fa9190613bc7565b611e9b565b60405161080c9190613a15565b60405180910390f35b34801561082157600080fd5b5061082a611f4e565b60405161083791906141d0565b60405180910390f35b34801561084c57600080fd5b5061086760048036038101906108629190613bc7565b61208e565b6040516108749190613e9d565b60405180910390f35b60007f80ac58cd000000000000000000000000000000000000000000000000000000007bffffffffffffffffffffffffffffffffffffffffffffffffffffffff1916827bffffffffffffffffffffffffffffffffffffffffffffffffffffffff1916148061094857507f5b5e139f000000000000000000000000000000000000000000000000000000007bffffffffffffffffffffffffffffffffffffffffffffffffffffffff1916827bffffffffffffffffffffffffffffffffffffffffffffffffffffffff1916145b806109585750610957826121d0565b5b9050919050565b60606000805461096e90614221565b80601f016020809104026020016040519081016040528092919081815260200182805461099a90614221565b80156109e75780601f106109bc576101008083540402835291602001916109e7565b820191906000526020600020905b8154815290600101906020018083116109ca57829003601f168201915b5050505050905090565b60006109fc8261223a565b6004600083815260200190815260200160002060009054906101000a900473ffffffffffffffffffffffffffffffffffffffff169050919050565b6000610a42826110d9565b90508073ffffffffffffffffffffffffffffffffffffffff168373ffffffffffffffffffffffffffffffffffffffff161415610ab3576040517f08c379a0000000000000000000000000000000000000000000000000000000008152600401610aaa906142c5565b60405180910390fd5b8073ffffffffffffffffffffffffffffffffffffffff16610ad2612285565b73ffffffffffffffffffffffffffffffffffffffff161480610b015750610b0081610afb612285565b6118e3565b5b610b40576040517f08c379a0000000000000000000000000000000000000000000000000000000008152600401610b3790614357565b60405180910390fd5b610b4a838361228d565b505050565b6060600d8383604051610b639291906143a7565b90815260200160405180910390208054610b7c90614221565b80601f0160208091040260200160405190810160405280929190818152602001828054610ba890614221565b8015610bf55780601f10610bca57610100808354040283529160200191610bf5565b820191906000526020600020905b815481529060010190602001808311610bd857829003601f168201915b5050505050905092915050565b610c13610c0d612285565b82612346565b610c52576040517f08c379a0000000000000000000000000000000000000000000000000000000008152600401610c4990614432565b60405180910390fd5b610c5d8383836123db565b505050565b600c818051602081018201805184825260208301602085012081835280955050505050506000915054906101000a900473ffffffffffffffffffffffffffffffffffffffff1681565b60088054610cb890614221565b80601f0160208091040260200160405190810160405280929190818152602001828054610ce490614221565b8015610d315780601f10610d0657610100808354040283529160200191610d31565b820191906000526020600020905b815481529060010190602001808311610d1457829003601f168201915b505050505081565b610d4161123e565b610d4a57600080fd5b600047905060003373ffffffffffffffffffffffffffffffffffffffff1682604051610d7590614483565b60006040518083038185875af1925050503d8060008114610db2576040519150601f19603f3d011682016040523d82523d6000602084013e610db7565b606091505b5050905080610dfb576040517f08c379a0000000000000000000000000000000000000000000000000000000008152600401610df2906144e4565b60405180910390fd5b5050565b3373ffffffffffffffffffffffffffffffffffffffff16600c8585604051610e289291906143a7565b908152602001604051809103902060009054906101000a900473ffffffffffffffffffffffffffffffffffffffff1673ffffffffffffffffffffffffffffffffffffffff1614610e7757600080fd5b8181600f8686604051610e8b9291906143a7565b90815260200160405180910390209190610ea6929190613784565b5050505050565b610ec8838383604051806020016040528060008152506114a5565b505050565b60106020528060005260406000206000915090508054610eec90614221565b80601f0160208091040260200160405190810160405280929190818152602001828054610f1890614221565b8015610f655780601f10610f3a57610100808354040283529160200191610f65565b820191906000526020600020905b815481529060010190602001808311610f4857829003601f168201915b505050505081565b600d818051602081018201805184825260208301602085012081835280955050505050506000915090508054610fa290614221565b80601f0160208091040260200160405190810160405280929190818152602001828054610fce90614221565b801561101b5780601f10610ff05761010080835404028352916020019161101b565b820191906000526020600020905b815481529060010190602001808311610ffe57829003601f168201915b505050505081565b600f81805160208101820180518482526020830160208501208183528095505050505050600091509050805461105890614221565b80601f016020809104026020016040519081016040528092919081815260200182805461108490614221565b80156110d15780601f106110a6576101008083540402835291602001916110d1565b820191906000526020600020905b8154815290600101906020018083116110b457829003601f168201915b505050505081565b6000806110e5836126d5565b9050600073ffffffffffffffffffffffffffffffffffffffff168173ffffffffffffffffffffffffffffffffffffffff161415611157576040517f08c379a000000000000000000000000000000000000000000000000000000000815260040161114e90614550565b60405180910390fd5b80915050919050565b60008073ffffffffffffffffffffffffffffffffffffffff168273ffffffffffffffffffffffffffffffffffffffff1614156111d1576040517f08c379a00000000000000000000000000000000000000000000000000000000081526004016111c8906145e2565b60405180910390fd5b600360008373ffffffffffffffffffffffffffffffffffffffff1673ffffffffffffffffffffffffffffffffffffffff168152602001908152602001600020549050919050565b601160009054906101000a900473ffffffffffffffffffffffffffffffffffffffff1681565b6000601160009054906101000a900473ffffffffffffffffffffffffffffffffffffffff1673ffffffffffffffffffffffffffffffffffffffff163373ffffffffffffffffffffffffffffffffffffffff1614905090565b6060600180546112a590614221565b80601f01602080910402602001604051908101604052809291908181526020018280546112d190614221565b801561131e5780601f106112f35761010080835404028352916020019161131e565b820191906000526020600020905b81548152906001019060200180831161130157829003601f168201915b5050505050905090565b6000600361137984848080601f016020809104026020016040519081016040528093929190818152602001838380828437600081840152601f19601f82011690508083019250505050505050612712565b101580156113d45750600a6113d184848080601f016020809104026020016040519081016040528093929190818152602001838380828437600081840152601f19601f82011690508083019250505050505050612712565b11155b905092915050565b6113ee6113e7612285565b83836128c7565b5050565b6060600f83836040516114069291906143a7565b9081526020016040518091039020805461141f90614221565b80601f016020809104026020016040519081016040528092919081815260200182805461144b90614221565b80156114985780601f1061146d57610100808354040283529160200191611498565b820191906000526020600020905b81548152906001019060200180831161147b57829003601f168201915b5050505050905092915050565b6114b66114b0612285565b83612346565b6114f5576040517f08c379a00000000000000000000000000000000000000000000000000000000081526004016114ec90614432565b60405180910390fd5b61150184848484612a34565b50505050565b6000600c838360405161151b9291906143a7565b908152602001604051809103902060009054906101000a900473ffffffffffffffffffffffffffffffffffffffff16905092915050565b600c84846040516115649291906143a7565b908152602001604051809103902060009054906101000a900473ffffffffffffffffffffffffffffffffffffffff1673ffffffffffffffffffffffffffffffffffffffff163373ffffffffffffffffffffffffffffffffffffffff16146115f7576040517f82b4290000000000000000000000000000000000000000000000000000000000815260040160405180910390fd5b8181600d868660405161160b9291906143a7565b90815260200160405180910390209190611626929190613784565b5050505050565b60606116388261223a565b600060066000848152602001908152602001600020805461165890614221565b80601f016020809104026020016040519081016040528092919081815260200182805461168490614221565b80156116d15780601f106116a6576101008083540402835291602001916116d1565b820191906000526020600020905b8154815290600101906020018083116116b457829003601f168201915b5050505050905060006116e2612a90565b90506000815114156116f857819250505061173b565b60008251111561172d578082604051602001611715929190614633565b6040516020818303038152906040529250505061173b565b61173684612aa7565b925050505b919050565b3373ffffffffffffffffffffffffffffffffffffffff16600c85856040516117699291906143a7565b908152602001604051809103902060009054906101000a900473ffffffffffffffffffffffffffffffffffffffff1673ffffffffffffffffffffffffffffffffffffffff16146117b857600080fd5b8181600e86866040516117cc9291906143a7565b908152602001604051809103902091906117e7929190613784565b506118276040518060400160405280601281526020017f456d61696c20616464726573732073657421000000000000000000000000000081525033612b0f565b50505050565b600e81805160208101820180518482526020830160208501208183528095505050505050600091509050805461186290614221565b80601f016020809104026020016040519081016040528092919081815260200182805461188e90614221565b80156118db5780601f106118b0576101008083540402835291602001916118db565b820191906000526020600020905b8154815290600101906020018083116118be57829003601f168201915b505050505081565b6000600560008473ffffffffffffffffffffffffffffffffffffffff1673ffffffffffffffffffffffffffffffffffffffff16815260200190815260200160002060008373ffffffffffffffffffffffffffffffffffffffff1673ffffffffffffffffffffffffffffffffffffffff16815260200190815260200160002060009054906101000a900460ff16905092915050565b600073ffffffffffffffffffffffffffffffffffffffff16600c83836040516119a19291906143a7565b908152602001604051809103902060009054906101000a900473ffffffffffffffffffffffffffffffffffffffff1673ffffffffffffffffffffffffffffffffffffffff1614611a1d576040517f3a81d6fc00000000000000000000000000000000000000000000000000000000815260040160405180910390fd5b611a278282611328565b611a6a5781816040517f7f19f48d000000000000000000000000000000000000000000000000000000008152600401611a61929190614684565b60405180910390fd5b600073ffffffffffffffffffffffffffffffffffffffff16600c8383604051611a949291906143a7565b908152602001604051809103902060009054906101000a900473ffffffffffffffffffffffffffffffffffffffff1673ffffffffffffffffffffffffffffffffffffffff1614611ae357600080fd5b6000611aef838361208e565b905080341015611b34576040517f08c379a0000000000000000000000000000000000000000000000000000000008152600401611b2b906146f4565b60405180910390fd5b600083836008604051602001611b4c939291906147f4565b604051602081830303815290604052905060006008604051602001611b719190614871565b6040516020818303038152906040529050600060098686600a85600b604051602001611ba296959493929190614893565b60405160208183030381529060405290506000611bbf6007612bab565b90506000611c1088888080601f016020809104026020016040519081016040528093929190818152602001838380828437600081840152601f19601f82011690508083019250505050505050612712565b90506000611c1d82612bb9565b9050611d116040518060600160405280603181526020016152e7603191398a8a8080601f016020809104026020016040519081016040528093929190818152602001838380828437600081840152601f19601f8201169050808301925050505050505060088054611c8d90614221565b80601f0160208091040260200160405190810160405280929190818152602001828054611cb990614221565b8015611d065780601f10611cdb57610100808354040283529160200191611d06565b820191906000526020600020905b815481529060010190602001808311611ce957829003601f168201915b505050505086612c91565b6000611d4787611d2087612d33565b84604051602001611d3393929190614a82565b604051602081830303815290604052612d33565b9050600081604051602001611d5c9190614b2b565b6040516020818303038152906040529050611d8e6040518060600160405280603981526020016152ae60399139612e97565b611dcd6040518060400160405280600e81526020017f46696e616c20746f6b656e55524900000000000000000000000000000000000081525082612134565b611dee60405180606001604052806039815260200161531860399139612e97565b611df83386612f30565b611e028582612f4e565b33600c8c8c604051611e159291906143a7565b908152602001604051809103902060006101000a81548173ffffffffffffffffffffffffffffffffffffffff021916908373ffffffffffffffffffffffffffffffffffffffff1602179055508a8a601060008881526020019081526020016000209190611e83929190613784565b50611e8e6007612fc2565b5050505050505050505050565b6060600e8383604051611eaf9291906143a7565b90815260200160405180910390208054611ec890614221565b80601f0160208091040260200160405190810160405280929190818152602001828054611ef490614221565b8015611f415780601f10611f1657610100808354040283529160200191611f41565b820191906000526020600020905b815481529060010190602001808311611f2457829003601f168201915b5050505050905092915050565b6060611f8e6040518060400160405280602081526020017f47657474696e6720616c6c206e616d65732066726f6d20636f6e74726163742e815250612e97565b6000611f9a6007612bab565b67ffffffffffffffff811115611fb357611fb2613c6c565b5b604051908082528060200260200182016040528015611fe657816020015b6060815260200190600190039081611fd15790505b50905060005b611ff66007612bab565b811015612086578181815181106120105761200f614b4d565b5b6020026020010151506120736040518060400160405280601781526020017f4e616d6520666f7220746f6b656e2025642069732025730000000000000000008152508284848151811061206657612065614b4d565b5b6020026020010151612fd8565b808061207e90614bab565b915050611fec565b508091505090565b6000806120de84848080601f016020809104026020016040519081016040528093929190818152602001838380828437600081840152601f19601f82011690508083019250505050505050612712565b9050600081116120ed57600080fd5b6003811415612107576706f05b59d3b2000091505061212e565b600481141561212157670429d069189e000091505061212e565b67016345785d8a00009150505b92915050565b6121cc828260405160240161214a929190614bf4565b6040516020818303038152906040527f4b5c4277000000000000000000000000000000000000000000000000000000007bffffffffffffffffffffffffffffffffffffffffffffffffffffffff19166020820180517bffffffffffffffffffffffffffffffffffffffffffffffffffffffff8381831617835250505050613077565b5050565b60007f01ffc9a7000000000000000000000000000000000000000000000000000000007bffffffffffffffffffffffffffffffffffffffffffffffffffffffff1916827bffffffffffffffffffffffffffffffffffffffffffffffffffffffff1916149050919050565b612243816130a0565b612282576040517f08c379a000000000000000000000000000000000000000000000000000000000815260040161227990614550565b60405180910390fd5b50565b600033905090565b816004600083815260200190815260200160002060006101000a81548173ffffffffffffffffffffffffffffffffffffffff021916908373ffffffffffffffffffffffffffffffffffffffff160217905550808273ffffffffffffffffffffffffffffffffffffffff16612300836110d9565b73ffffffffffffffffffffffffffffffffffffffff167f8c5be1e5ebec7d5bd14f71427d1e84f3dd0314c0f7b2291e5b200ac8c7c3b92560405160405180910390a45050565b600080612352836110d9565b90508073ffffffffffffffffffffffffffffffffffffffff168473ffffffffffffffffffffffffffffffffffffffff161480612394575061239381856118e3565b5b806123d257508373ffffffffffffffffffffffffffffffffffffffff166123ba846109f1565b73ffffffffffffffffffffffffffffffffffffffff16145b91505092915050565b8273ffffffffffffffffffffffffffffffffffffffff166123fb826110d9565b73ffffffffffffffffffffffffffffffffffffffff1614612451576040517f08c379a000000000000000000000000000000000000000000000000000000000815260040161244890614c9d565b60405180910390fd5b600073ffffffffffffffffffffffffffffffffffffffff168273ffffffffffffffffffffffffffffffffffffffff1614156124c1576040517f08c379a00000000000000000000000000000000000000000000000000000000081526004016124b890614d2f565b60405180910390fd5b6124ce83838360016130e1565b8273ffffffffffffffffffffffffffffffffffffffff166124ee826110d9565b73ffffffffffffffffffffffffffffffffffffffff1614612544576040517f08c379a000000000000000000000000000000000000000000000000000000000815260040161253b90614c9d565b60405180910390fd5b6004600082815260200190815260200160002060006101000a81549073ffffffffffffffffffffffffffffffffffffffff02191690556001600360008573ffffffffffffffffffffffffffffffffffffffff1673ffffffffffffffffffffffffffffffffffffffff168152602001908152602001600020600082825403925050819055506001600360008473ffffffffffffffffffffffffffffffffffffffff1673ffffffffffffffffffffffffffffffffffffffff16815260200190815260200160002060008282540192505081905550816002600083815260200190815260200160002060006101000a81548173ffffffffffffffffffffffffffffffffffffffff021916908373ffffffffffffffffffffffffffffffffffffffff160217905550808273ffffffffffffffffffffffffffffffffffffffff168473ffffffffffffffffffffffffffffffffffffffff167fddf252ad1be2c89b69c2b068fc378daa952ba7f163c4a11628f55a4df523b3ef60405160405180910390a46126d08383836001613207565b505050565b60006002600083815260200190815260200160002060009054906101000a900473ffffffffffffffffffffffffffffffffffffffff169050919050565b60008060008084519050600092505b808210156128bc57600085838151811061273e5761273d614b4d565b5b602001015160f81c60f81b9050608060f81b817effffffffffffffffffffffffffffffffffffffffffffffffffffffffffffff1916101561278d576001836127869190614d4f565b92506128a8565b60e060f81b817effffffffffffffffffffffffffffffffffffffffffffffffffffffffffffff191610156127cf576002836127c89190614d4f565b92506128a7565b60f060f81b817effffffffffffffffffffffffffffffffffffffffffffffffffffffffffffff191610156128115760038361280a9190614d4f565b92506128a6565b60f8801b817effffffffffffffffffffffffffffffffffffffffffffffffffffffffffffff191610156128525760048361284b9190614d4f565b92506128a5565b60fc60f81b817effffffffffffffffffffffffffffffffffffffffffffffffffffffffffffff191610156128945760058361288d9190614d4f565b92506128a4565b6006836128a19190614d4f565b92505b5b5b5b5b5082806128b490614bab565b935050612721565b829350505050919050565b8173ffffffffffffffffffffffffffffffffffffffff168373ffffffffffffffffffffffffffffffffffffffff161415612936576040517f08c379a000000000000000000000000000000000000000000000000000000000815260040161292d90614df1565b60405180910390fd5b80600560008573ffffffffffffffffffffffffffffffffffffffff1673ffffffffffffffffffffffffffffffffffffffff16815260200190815260200160002060008473ffffffffffffffffffffffffffffffffffffffff1673ffffffffffffffffffffffffffffffffffffffff16815260200190815260200160002060006101000a81548160ff0219169083151502179055508173ffffffffffffffffffffffffffffffffffffffff168373ffffffffffffffffffffffffffffffffffffffff167f17307eab39ab6107e8899845ad3d59bd9653f200f220920489ca2b5937696c3183604051612a279190613961565b60405180910390a3505050565b612a3f8484846123db565b612a4b8484848461320d565b612a8a576040517f08c379a0000000000000000000000000000000000000000000000000000000008152600401612a8190614e83565b60405180910390fd5b50505050565b606060405180602001604052806000815250905090565b6060612ab28261223a565b6000612abc612a90565b90506000815111612adc5760405180602001604052806000815250612b07565b80612ae684612bb9565b604051602001612af7929190614633565b6040516020818303038152906040525b915050919050565b612ba78282604051602401612b25929190614ea3565b6040516020818303038152906040527f319af333000000000000000000000000000000000000000000000000000000007bffffffffffffffffffffffffffffffffffffffffffffffffffffffff19166020820180517bffffffffffffffffffffffffffffffffffffffffffffffffffffffff8381831617835250505050613077565b5050565b600081600001549050919050565b606060006001612bc884613395565b01905060008167ffffffffffffffff811115612be757612be6613c6c565b5b6040519080825280601f01601f191660200182016040528015612c195781602001600182028036833780820191505090505b509050600082602001820190505b600115612c86578080600190039150507f3031323334353637383961626364656600000000000000000000000000000000600a86061a8153600a8581612c7057612c6f614ed3565b5b0494506000851415612c8157612c86565b612c27565b819350505050919050565b612d2d84848484604051602401612cab9493929190614f02565b6040516020818303038152906040527f8eafb02b000000000000000000000000000000000000000000000000000000007bffffffffffffffffffffffffffffffffffffffffffffffffffffffff19166020820180517bffffffffffffffffffffffffffffffffffffffffffffffffffffffff8381831617835250505050613077565b50505050565b6060600082511415612d5657604051806020016040528060008152509050612e92565b60006040518060600160405280604081526020016153516040913990506000600360028551612d859190614d4f565b612d8f9190614f5c565b6004612d9b9190614f8d565b67ffffffffffffffff811115612db457612db3613c6c565b5b6040519080825280601f01601f191660200182016040528015612de65781602001600182028036833780820191505090505b509050600182016020820185865187015b80821015612e52576003820191508151603f8160121c168501518453600184019350603f81600c1c168501518453600184019350603f8160061c168501518453600184019350603f8116850151845360018401935050612df7565b5050600386510660018114612e6e5760028114612e8157612e89565b603d6001830353603d6002830353612e89565b603d60018303535b50505080925050505b919050565b612f2d81604051602401612eab9190613a15565b6040516020818303038152906040527f41304fac000000000000000000000000000000000000000000000000000000007bffffffffffffffffffffffffffffffffffffffffffffffffffffffff19166020820180517bffffffffffffffffffffffffffffffffffffffffffffffffffffffff8381831617835250505050613077565b50565b612f4a8282604051806020016040528060008152506134e8565b5050565b612f57826130a0565b612f96576040517f08c379a0000000000000000000000000000000000000000000000000000000008152600401612f8d90615059565b60405180910390fd5b80600660008481526020019081526020016000209080519060200190612fbd92919061380a565b505050565b6001816000016000828254019250508190555050565b613072838383604051602401612ff093929190615079565b6040516020818303038152906040527f5970e089000000000000000000000000000000000000000000000000000000007bffffffffffffffffffffffffffffffffffffffffffffffffffffffff19166020820180517bffffffffffffffffffffffffffffffffffffffffffffffffffffffff8381831617835250505050613077565b505050565b60008151905060006a636f6e736f6c652e6c6f679050602083016000808483855afa5050505050565b60008073ffffffffffffffffffffffffffffffffffffffff166130c2836126d5565b73ffffffffffffffffffffffffffffffffffffffff1614159050919050565b600181111561320157600073ffffffffffffffffffffffffffffffffffffffff168473ffffffffffffffffffffffffffffffffffffffff16146131755780600360008673ffffffffffffffffffffffffffffffffffffffff1673ffffffffffffffffffffffffffffffffffffffff168152602001908152602001600020600082825461316d91906150be565b925050819055505b600073ffffffffffffffffffffffffffffffffffffffff168373ffffffffffffffffffffffffffffffffffffffff16146132005780600360008573ffffffffffffffffffffffffffffffffffffffff1673ffffffffffffffffffffffffffffffffffffffff16815260200190815260200160002060008282546131f89190614d4f565b925050819055505b5b50505050565b50505050565b600061322e8473ffffffffffffffffffffffffffffffffffffffff16613543565b15613388578373ffffffffffffffffffffffffffffffffffffffff1663150b7a02613257612285565b8786866040518563ffffffff1660e01b81526004016132799493929190615147565b6020604051808303816000875af19250505080156132b557506040513d601f19601f820116820180604052508101906132b291906151a8565b60015b613338573d80600081146132e5576040519150601f19603f3d011682016040523d82523d6000602084013e6132ea565b606091505b50600081511415613330576040517f08c379a000000000000000000000000000000000000000000000000000000000815260040161332790614e83565b60405180910390fd5b805181602001fd5b63150b7a0260e01b7bffffffffffffffffffffffffffffffffffffffffffffffffffffffff1916817bffffffffffffffffffffffffffffffffffffffffffffffffffffffff19161491505061338d565b600190505b949350505050565b600080600090507a184f03e93ff9f4daa797ed6e38ed64bf6a1f01000000000000000083106133f3577a184f03e93ff9f4daa797ed6e38ed64bf6a1f01000000000000000083816133e9576133e8614ed3565b5b0492506040810190505b6d04ee2d6d415b85acef81000000008310613430576d04ee2d6d415b85acef8100000000838161342657613425614ed3565b5b0492506020810190505b662386f26fc10000831061345f57662386f26fc10000838161345557613454614ed3565b5b0492506010810190505b6305f5e1008310613488576305f5e100838161347e5761347d614ed3565b5b0492506008810190505b61271083106134ad5761271083816134a3576134a2614ed3565b5b0492506004810190505b606483106134d057606483816134c6576134c5614ed3565b5b0492506002810190505b600a83106134df576001810190505b80915050919050565b6134f28383613566565b6134ff600084848461320d565b61353e576040517f08c379a000000000000000000000000000000000000000000000000000000000815260040161353590614e83565b60405180910390fd5b505050565b6000808273ffffffffffffffffffffffffffffffffffffffff163b119050919050565b600073ffffffffffffffffffffffffffffffffffffffff168273ffffffffffffffffffffffffffffffffffffffff1614156135d6576040517f08c379a00000000000000000000000000000000000000000000000000000000081526004016135cd90615221565b60405180910390fd5b6135df816130a0565b1561361f576040517f08c379a00000000000000000000000000000000000000000000000000000000081526004016136169061528d565b60405180910390fd5b61362d6000838360016130e1565b613636816130a0565b15613676576040517f08c379a000000000000000000000000000000000000000000000000000000000815260040161366d9061528d565b60405180910390fd5b6001600360008473ffffffffffffffffffffffffffffffffffffffff1673ffffffffffffffffffffffffffffffffffffffff16815260200190815260200160002060008282540192505081905550816002600083815260200190815260200160002060006101000a81548173ffffffffffffffffffffffffffffffffffffffff021916908373ffffffffffffffffffffffffffffffffffffffff160217905550808273ffffffffffffffffffffffffffffffffffffffff16600073ffffffffffffffffffffffffffffffffffffffff167fddf252ad1be2c89b69c2b068fc378daa952ba7f163c4a11628f55a4df523b3ef60405160405180910390a4613780600083836001613207565b5050565b82805461379090614221565b90600052602060002090601f0160209004810192826137b257600085556137f9565b82601f106137cb57803560ff19168380011785556137f9565b828001600101855582156137f9579182015b828111156137f85782358255916020019190600101906137dd565b5b5090506138069190613890565b5090565b82805461381690614221565b90600052602060002090601f016020900481019282613838576000855561387f565b82601f1061385157805160ff191683800117855561387f565b8280016001018555821561387f579182015b8281111561387e578251825591602001919060010190613863565b5b50905061388c9190613890565b5090565b5b808211156138a9576000816000905550600101613891565b5090565b6000604051905090565b600080fd5b600080fd5b60007fffffffff0000000000000000000000000000000000000000000000000000000082169050919050565b6138f6816138c1565b811461390157600080fd5b50565b600081359050613913816138ed565b92915050565b60006020828403121561392f5761392e6138b7565b5b600061393d84828501613904565b91505092915050565b60008115159050919050565b61395b81613946565b82525050565b60006020820190506139766000830184613952565b92915050565b600081519050919050565b600082825260208201905092915050565b60005b838110156139b657808201518184015260208101905061399b565b838111156139c5576000848401525b50505050565b6000601f19601f8301169050919050565b60006139e78261397c565b6139f18185613987565b9350613a01818560208601613998565b613a0a816139cb565b840191505092915050565b60006020820190508181036000830152613a2f81846139dc565b905092915050565b6000819050919050565b613a4a81613a37565b8114613a5557600080fd5b50565b600081359050613a6781613a41565b92915050565b600060208284031215613a8357613a826138b7565b5b6000613a9184828501613a58565b91505092915050565b600073ffffffffffffffffffffffffffffffffffffffff82169050919050565b6000613ac582613a9a565b9050919050565b613ad581613aba565b82525050565b6000602082019050613af06000830184613acc565b92915050565b613aff81613aba565b8114613b0a57600080fd5b50565b600081359050613b1c81613af6565b92915050565b60008060408385031215613b3957613b386138b7565b5b6000613b4785828601613b0d565b9250506020613b5885828601613a58565b9150509250929050565b600080fd5b600080fd5b600080fd5b60008083601f840112613b8757613b86613b62565b5b8235905067ffffffffffffffff811115613ba457613ba3613b67565b5b602083019150836001820283011115613bc057613bbf613b6c565b5b9250929050565b60008060208385031215613bde57613bdd6138b7565b5b600083013567ffffffffffffffff811115613bfc57613bfb6138bc565b5b613c0885828601613b71565b92509250509250929050565b600080600060608486031215613c2d57613c2c6138b7565b5b6000613c3b86828701613b0d565b9350506020613c4c86828701613b0d565b9250506040613c5d86828701613a58565b9150509250925092565b600080fd5b7f4e487b7100000000000000000000000000000000000000000000000000000000600052604160045260246000fd5b613ca4826139cb565b810181811067ffffffffffffffff82111715613cc357613cc2613c6c565b5b80604052505050565b6000613cd66138ad565b9050613ce28282613c9b565b919050565b600067ffffffffffffffff821115613d0257613d01613c6c565b5b613d0b826139cb565b9050602081019050919050565b82818337600083830152505050565b6000613d3a613d3584613ce7565b613ccc565b905082815260208101848484011115613d5657613d55613c67565b5b613d61848285613d18565b509392505050565b600082601f830112613d7e57613d7d613b62565b5b8135613d8e848260208601613d27565b91505092915050565b600060208284031215613dad57613dac6138b7565b5b600082013567ffffffffffffffff811115613dcb57613dca6138bc565b5b613dd784828501613d69565b91505092915050565b60008060008060408587031215613dfa57613df96138b7565b5b600085013567ffffffffffffffff811115613e1857613e176138bc565b5b613e2487828801613b71565b9450945050602085013567ffffffffffffffff811115613e4757613e466138bc565b5b613e5387828801613b71565b925092505092959194509250565b600060208284031215613e7757613e766138b7565b5b6000613e8584828501613b0d565b91505092915050565b613e9781613a37565b82525050565b6000602082019050613eb26000830184613e8e565b92915050565b6000613ec382613a9a565b9050919050565b613ed381613eb8565b82525050565b6000602082019050613eee6000830184613eca565b92915050565b613efd81613946565b8114613f0857600080fd5b50565b600081359050613f1a81613ef4565b92915050565b60008060408385031215613f3757613f366138b7565b5b6000613f4585828601613b0d565b9250506020613f5685828601613f0b565b9150509250929050565b600067ffffffffffffffff821115613f7b57613f7a613c6c565b5b613f84826139cb565b9050602081019050919050565b6000613fa4613f9f84613f60565b613ccc565b905082815260208101848484011115613fc057613fbf613c67565b5b613fcb848285613d18565b509392505050565b600082601f830112613fe857613fe7613b62565b5b8135613ff8848260208601613f91565b91505092915050565b6000806000806080858703121561401b5761401a6138b7565b5b600061402987828801613b0d565b945050602061403a87828801613b0d565b935050604061404b87828801613a58565b925050606085013567ffffffffffffffff81111561406c5761406b6138bc565b5b61407887828801613fd3565b91505092959194509250565b6000806040838503121561409b5761409a6138b7565b5b60006140a985828601613b0d565b92505060206140ba85828601613b0d565b9150509250929050565b600081519050919050565b600082825260208201905092915050565b6000819050602082019050919050565b600082825260208201905092915050565b600061410c8261397c565b61411681856140f0565b9350614126818560208601613998565b61412f816139cb565b840191505092915050565b60006141468383614101565b905092915050565b6000602082019050919050565b6000614166826140c4565b61417081856140cf565b935083602082028501614182856140e0565b8060005b858110156141be578484038952815161419f858261413a565b94506141aa8361414e565b925060208a01995050600181019050614186565b50829750879550505050505092915050565b600060208201905081810360008301526141ea818461415b565b905092915050565b7f4e487b7100000000000000000000000000000000000000000000000000000000600052602260045260246000fd5b6000600282049050600182168061423957607f821691505b6020821081141561424d5761424c6141f2565b5b50919050565b7f4552433732313a20617070726f76616c20746f2063757272656e74206f776e6560008201527f7200000000000000000000000000000000000000000000000000000000000000602082015250565b60006142af602183613987565b91506142ba82614253565b604082019050919050565b600060208201905081810360008301526142de816142a2565b9050919050565b7f4552433732313a20617070726f76652063616c6c6572206973206e6f7420746f60008201527f6b656e206f776e6572206f7220617070726f76656420666f7220616c6c000000602082015250565b6000614341603d83613987565b915061434c826142e5565b604082019050919050565b6000602082019050818103600083015261437081614334565b9050919050565b600081905092915050565b600061438e8385614377565b935061439b838584613d18565b82840190509392505050565b60006143b4828486614382565b91508190509392505050565b7f4552433732313a2063616c6c6572206973206e6f7420746f6b656e206f776e6560008201527f72206f7220617070726f76656400000000000000000000000000000000000000602082015250565b600061441c602d83613987565b9150614427826143c0565b604082019050919050565b6000602082019050818103600083015261444b8161440f565b9050919050565b600081905092915050565b50565b600061446d600083614452565b91506144788261445d565b600082019050919050565b600061448e82614460565b9150819050919050565b7f4661696c656420746f207769746864726177204d415449432e00000000000000600082015250565b60006144ce601983613987565b91506144d982614498565b602082019050919050565b600060208201905081810360008301526144fd816144c1565b9050919050565b7f4552433732313a20696e76616c696420746f6b656e2049440000000000000000600082015250565b600061453a601883613987565b915061454582614504565b602082019050919050565b600060208201905081810360008301526145698161452d565b9050919050565b7f4552433732313a2061646472657373207a65726f206973206e6f74206120766160008201527f6c6964206f776e65720000000000000000000000000000000000000000000000602082015250565b60006145cc602983613987565b91506145d782614570565b604082019050919050565b600060208201905081810360008301526145fb816145bf565b9050919050565b600061460d8261397c565b6146178185614377565b9350614627818560208601613998565b80840191505092915050565b600061463f8285614602565b915061464b8284614602565b91508190509392505050565b60006146638385613987565b9350614670838584613d18565b614679836139cb565b840190509392505050565b6000602082019050818103600083015261469f818486614657565b90509392505050565b7f4e6f7420656e6f756768204d6174696320706169640000000000000000000000600082015250565b60006146de601583613987565b91506146e9826146a8565b602082019050919050565b6000602082019050818103600083015261470d816146d1565b9050919050565b7f2e00000000000000000000000000000000000000000000000000000000000000600082015250565b600061474a600183614377565b915061475582614714565b600182019050919050565b60008190508160005260206000209050919050565b6000815461478281614221565b61478c8186614377565b945060018216600081146147a757600181146147b8576147eb565b60ff198316865281860193506147eb565b6147c185614760565b60005b838110156147e3578154818901526001820191506020810190506147c4565b838801955050505b50505092915050565b6000614801828587614382565b915061480c8261473d565b91506148188284614775565b9150819050949350505050565b7f28646f74292e0000000000000000000000000000000000000000000000000000600082015250565b600061485b600683614377565b915061486682614825565b600682019050919050565b600061487c8261484e565b91506148888284614775565b915081905092915050565b600061489f8289614775565b91506148ac828789614382565b91506148b88286614775565b91506148c48285614602565b91506148d08284614775565b9150819050979650505050505050565b7f7b226e616d65223a202200000000000000000000000000000000000000000000600082015250565b6000614916600a83614377565b9150614921826148e0565b600a82019050919050565b7f222c20226465736372697074696f6e223a20224120646f6d61696e206f6e207460008201527f686520546f6b65727320544c44204e616d652053657276696365222c2022696d60208201527f616765223a2022646174613a696d6167652f7376672b786d6c3b62617365363460408201527f2c00000000000000000000000000000000000000000000000000000000000000606082015250565b60006149d4606183614377565b91506149df8261492c565b606182019050919050565b7f222c226c656e677468223a220000000000000000000000000000000000000000600082015250565b6000614a20600c83614377565b9150614a2b826149ea565b600c82019050919050565b7f227d000000000000000000000000000000000000000000000000000000000000600082015250565b6000614a6c600283614377565b9150614a7782614a36565b600282019050919050565b6000614a8d82614909565b9150614a998286614602565b9150614aa4826149c7565b9150614ab08285614602565b9150614abb82614a13565b9150614ac78284614602565b9150614ad282614a5f565b9150819050949350505050565b7f646174613a6170706c69636174696f6e2f6a736f6e3b6261736536342c000000600082015250565b6000614b15601d83614377565b9150614b2082614adf565b601d82019050919050565b6000614b3682614b08565b9150614b428284614602565b915081905092915050565b7f4e487b7100000000000000000000000000000000000000000000000000000000600052603260045260246000fd5b7f4e487b7100000000000000000000000000000000000000000000000000000000600052601160045260246000fd5b6000614bb682613a37565b91507fffffffffffffffffffffffffffffffffffffffffffffffffffffffffffffffff821415614be957614be8614b7c565b5b600182019050919050565b60006040820190508181036000830152614c0e81856139dc565b90508181036020830152614c2281846139dc565b90509392505050565b7f4552433732313a207472616e736665722066726f6d20696e636f72726563742060008201527f6f776e6572000000000000000000000000000000000000000000000000000000602082015250565b6000614c87602583613987565b9150614c9282614c2b565b604082019050919050565b60006020820190508181036000830152614cb681614c7a565b9050919050565b7f4552433732313a207472616e7366657220746f20746865207a65726f2061646460008201527f7265737300000000000000000000000000000000000000000000000000000000602082015250565b6000614d19602483613987565b9150614d2482614cbd565b604082019050919050565b60006020820190508181036000830152614d4881614d0c565b9050919050565b6000614d5a82613a37565b9150614d6583613a37565b9250827fffffffffffffffffffffffffffffffffffffffffffffffffffffffffffffffff03821115614d9a57614d99614b7c565b5b828201905092915050565b7f4552433732313a20617070726f766520746f2063616c6c657200000000000000600082015250565b6000614ddb601983613987565b9150614de682614da5565b602082019050919050565b60006020820190508181036000830152614e0a81614dce565b9050919050565b7f4552433732313a207472616e7366657220746f206e6f6e20455243373231526560008201527f63656976657220696d706c656d656e7465720000000000000000000000000000602082015250565b6000614e6d603283613987565b9150614e7882614e11565b604082019050919050565b60006020820190508181036000830152614e9c81614e60565b9050919050565b60006040820190508181036000830152614ebd81856139dc565b9050614ecc6020830184613acc565b9392505050565b7f4e487b7100000000000000000000000000000000000000000000000000000000600052601260045260246000fd5b60006080820190508181036000830152614f1c81876139dc565b90508181036020830152614f3081866139dc565b90508181036040830152614f4481856139dc565b9050614f536060830184613e8e565b95945050505050565b6000614f6782613a37565b9150614f7283613a37565b925082614f8257614f81614ed3565b5b828204905092915050565b6000614f9882613a37565b9150614fa383613a37565b9250817fffffffffffffffffffffffffffffffffffffffffffffffffffffffffffffffff0483118215151615614fdc57614fdb614b7c565b5b828202905092915050565b7f45524337323155524953746f726167653a2055524920736574206f66206e6f6e60008201527f6578697374656e7420746f6b656e000000000000000000000000000000000000602082015250565b6000615043602e83613987565b915061504e82614fe7565b604082019050919050565b6000602082019050818103600083015261507281615036565b9050919050565b6000606082019050818103600083015261509381866139dc565b90506150a26020830185613e8e565b81810360408301526150b481846139dc565b9050949350505050565b60006150c982613a37565b91506150d483613a37565b9250828210156150e7576150e6614b7c565b5b828203905092915050565b600081519050919050565b600082825260208201905092915050565b6000615119826150f2565b61512381856150fd565b9350615133818560208601613998565b61513c816139cb565b840191505092915050565b600060808201905061515c6000830187613acc565b6151696020830186613acc565b6151766040830185613e8e565b8181036060830152615188818461510e565b905095945050505050565b6000815190506151a2816138ed565b92915050565b6000602082840312156151be576151bd6138b7565b5b60006151cc84828501615193565b91505092915050565b7f4552433732313a206d696e7420746f20746865207a65726f2061646472657373600082015250565b600061520b602083613987565b9150615216826151d5565b602082019050919050565b6000602082019050818103600083015261523a816151fe565b9050919050565b7f4552433732313a20746f6b656e20616c7265616479206d696e74656400000000600082015250565b6000615277601c83613987565b915061528282615241565b602082019050919050565b600060208201905081810360008301526152a68161526a565b905091905056fe0a2d2d2d2d2d2d2d2d2d2d2d2d2d2d2d2d2d2d2d2d2d2d2d2d2d2d2d2d2d2d2d2d2d2d2d2d2d2d2d2d2d2d2d2d2d2d2d2d2d2d2d2d2d2d2d2d5265676973746572696e672025732e2573206f6e2074686520636f6e7472616374207769746820746f6b656e49442025642d2d2d2d2d2d2d2d2d2d2d2d2d2d2d2d2d2d2d2d2d2d2d2d2d2d2d2d2d2d2d2d2d2d2d2d2d2d2d2d2d2d2d2d2d2d2d2d2d2d2d2d2d2d2d2d0a4142434445464748494a4b4c4d4e4f505152535455565758595a6162636465666768696a6b6c6d6e6f707172737475767778797a303132333435363738392b2fa2646970667358221220f88bc8f2310b4d47a7d5e482a49057869db248b21bc5021c7ec9ab92cfad092164736f6c634300080a00333c73766720786d6c6e733d22687474703a2f2f7777772e77332e6f72672f323030302f737667222077696474683d2232373022206865696768743d22323730222066696c6c3d226e6f6e65223e3c706174682066696c6c3d2275726c282361292220643d224d302030683237307632373048307a222f3e3c646566733e3c66696c7465722069643d22622220636f6c6f722d696e746572706f6c6174696f6e2d66696c746572733d2273524742222066696c746572556e6974733d227573657253706163654f6e55736522206865696768743d22323730222077696474683d22323730223e3c666544726f70536861646f772064783d2230222064793d22312220737464446576696174696f6e3d22322220666c6f6f642d6f7061636974793d222e323235222077696474683d223230302522206865696768743d2232303025222f3e3c2f66696c7465723e3c2f646566733e3c706174682066696c6c3d22236666662220643d224d32302e3233342032352e38383761352e33303820352e33303820302030203020332e33303120322e3431762d322e3837356c2d342e3638372d332e3132356131312e3430322031312e34303220302030203020312e33383620332e35395a6d32372e38373120332e3739335631382e3632354834322e393861372e323120372e32312030203020302d352e30363220322e3039346c2d2e3836372e38372d2e3837312d2e383761372e32303420372e3230342030203020302d352e3036332d322e303934682d352e3132355632392e3638633020362e30393720342e3936312031312e3035342031312e3035392031312e30353420362e30393720302031312e3035342d342e3935372031312e3035342d31312e3035345a4d32392e34352032362e363133632d2e3931342d2e3833322d312e32332d322e3035382d2e3832342d332e3137356c2e3431342d312e313320342e33323420312e393635762e383634633020312e3135322d312e30323720322e3038362d322e32393320322e30383661322e34313820322e3431382030203020312d312e36322d2e36315a6d372e3630322031302e34333861342e39313820342e3931382030203020312d342e3931342d342e39313468322e34353761322e34353920322e34353920302030203020322e34353720322e34353720322e34353920322e34353920302030203020322e3435372d322e34353768322e34353761342e39313820342e3931382030203020312d342e39313420342e3931345a6d352e3937362d392e383238632d312e32363520302d322e3239332d2e3933342d322e3239332d322e303836762d2e3836346c342e3332352d312e3936342e34313420312e313238632e343120312e3131382e303920322e3334342d2e38323520332e3137362d2e34332e33392d312e3031312e36312d312e36322e36315a6d302030222f3e3c6720636c69702d706174683d2275726c28236134346232306538646529223e3c706174682066696c6c3d22236666662220643d224d32332e3731352034342e3336332032352e3531322034346c2d312e3731352d322e3734326132312e3835352032312e3835352030203020302d392e3639352d382e343232632d332e322d312e3432322d362d332e3436392d382e3332352d362e3038366c2d342e3332342d342e3836336131392e3836322031392e38363220302030203020332e33313720392e393820392e33303820392e33303820302030203120312e353720352e31383420392e323720392e32372030203020312d312e31323120342e3338362032372e3636322032372e3636322030203020312031382e34393620322e3932365a6d302030222f3e3c2f673e3c706174682066696c6c3d22236666662220643d224d35302e3536332032382e32393761352e32393820352e32393820302030203020332e332d322e34312031312e3331372031312e33313720302030203020312e33392d332e35396c2d342e363920332e3132355a6d2d31302e30392032332e30333963312e3737372d322e30363320322e35352d352e34383420322e3731382d362e393838762d322e3634396131332e3339342031332e3339342030203020312d31322e323835203076322e363435632e31373620312e3530342e39353320342e39323620322e37323320362e39383861332e32393420332e32393420302030203120332e3032332d312e393936682e37393363312e3336203020322e3532342e38323420332e30323820325a6d2d332e3832312e343537612e3833322e3833322030203020302d2e3833322e3832386330202e31312e3032342e3231312e3036332e3331336c312e31363820322e39323120312e3136382d322e393231612e38332e38332030203020302d2e3737332d312e31345a6d31372e3739332d362e36323120322e37322e35343361382e36313520382e36313520302030203120352e38313220342e32352032312e30342032312e303420302030203120352e33322d362e3133372032352e3236382032352e3236382030203020302d31332e38353220312e3334345a6d302030222f3e3c6720636c69702d706174683d2275726c28233332356436646539343829223e3c706174682066696c6c3d22236666662220643d226d37322e3634382032312e3838372d342e33323420342e3836334132342e3230342032342e3230342030203020312036302033322e3833366132312e3835352032312e3835352030203020302d392e36393520382e3432324c34382e35392034346c312e3739372e3336336132372e3635342032372e3635342030203020312031382e3439362d322e39323520392e323720392e32372030203020312d312e3132312d342e33383763302d312e3835322e3534332d332e36343520312e3536362d352e3138346131392e3835342031392e38353420302030203020332e33322d392e39385a6d302030222f3e3c2f673e3c706174682066696c6c3d22236666662220643d226d31362e3933382034352e37313520322e3731342d2e3534336132352e3138372032352e3138372030203020302d31332e3835312d312e33342032312e3034352032312e30343520302030203120352e33323420362e31333320382e35393820382e35393820302030203120352e3831332d342e32355a6d302030222f3e3c6720636c69702d706174683d2275726c28233639363232623238336529223e3c706174682066696c6c3d22236666662220643d224d32322e3330392031302e303233632e3339342e3133332e3738352e323520312e31382e3337326131342e3635312031342e3635312030203020302d312e313820352e37373376352e3438346c312e3232362e3832762d362e33303468372e35383261392e3720392e3720302030203120352e39333420322e30343720392e36383220392e36383220302030203120352e39332d322e30343768372e35383176362e3330356c312e3233312d2e3832762d352e34383563302d322e30352d2e3432322d342d312e3138342d352e3737332e3339352d2e3132322e37392d2e32333920312e3138342d2e33373261382e38393220382e38393220302030203020342e3931342d372e393439762d2e3634386131342e3635322031342e3635322030203020312d382e31313720322e343537682d332e34316131342e36332031342e36332030203020302d382e31332d322e343537632d332e30303320302d352e382e3930362d382e31333220322e343537682d332e34316131342e36332031342e36332030203020312d382e3131332d322e343537762e36343861382e38383420382e38383420302030203020342e39313420372e39355a6d302030222f3e3c2f673e3c646566733e3c6c696e6561724772616469656e742069643d2261222078313d2230222079313d2230222078323d22323730222079323d2232373022206772616469656e74556e6974733d227573657253706163654f6e557365223e3c73746f702f3e3c73746f70206f66667365743d2231222073746f702d636f6c6f723d22726564222073746f702d6f7061636974793d222e3939222f3e3c2f6c696e6561724772616469656e743e3c2f646566733e3c7465787420783d2235302220793d223530252220666f6e742d73697a653d223237222066696c6c3d2223666666222066696c7465723d2275726c282362292220666f6e742d66616d696c793d22506c7573204a616b617274612053616e732c44656a6156752053616e732c4e6f746f20436f6c6f7220456d6f6a692c4170706c6520436f6c6f7220456d6f6a692c73616e732d73657269662220666f6e742d7765696768743d22626f6c64223e3c2f746578743e3c7465787420783d223131352220793d223233352220666f6e742d73697a653d223330222066696c6c3d2223666666222066696c7465723d2275726c282362292220666f6e742d66616d696c793d22506c7573204a616b617274612053616e732c44656a6156752053616e732c4e6f746f20436f6c6f7220456d6f6a692c4170706c6520436f6c6f7220456d6f6a692c73616e732d73657269662220666f6e742d7765696768743d22626f6c64223e",
    "linkReferences": {},
    "deployedLinkReferences": {}
}